{
  "transactions": [
    {
      "hash": "0x8d6a613c93e5c33e2a437c1214e823d3b7cab1e733627689c726c0abe23b2356",
      "transactionType": "CALL",
      "contractName": null,
      "contractAddress": "0xd727cf12284ecf6838df2b656ec87e7cd1dde073",
      "function": "approve(address,uint256)",
      "arguments": [
        "0xdEDb01eed7786BFB8633c827D4D05Ee5D14Fd732",
        "10"
      ],
      "transaction": {
        "from": "0x8029505591a4e95ce2945b62d46e64dc4ddc9dec",
        "to": "0xd727cf12284ecf6838df2b656ec87e7cd1dde073",
        "gas": "0x107ff",
        "value": "0x0",
        "input": "0x095ea7b3000000000000000000000000dedb01eed7786bfb8633c827d4d05ee5d14fd732000000000000000000000000000000000000000000000000000000000000000a",
        "nonce": "0xdd",
        "chainId": "0xaa36a7"
      },
      "additionalContracts": [],
      "isFixedGasLimit": false
    },
    {
      "hash": "0x4e48b4438587287a003145e4268eedee762d60c3f9cc85e613316b0b992e2d1b",
      "transactionType": "CALL",
      "contractName": null,
      "contractAddress": "0xdedb01eed7786bfb8633c827d4d05ee5d14fd732",
      "function": "swap(address,address,uint256)",
      "arguments": [
        "0xd727cf12284eCF6838dF2b656Ec87e7Cd1Dde073",
        "0x737aA5dc800b102d3Ff77cF2400ca512EcFec2Ab",
        "10"
      ],
      "transaction": {
        "from": "0x8029505591a4e95ce2945b62d46e64dc4ddc9dec",
        "to": "0xdedb01eed7786bfb8633c827d4d05ee5d14fd732",
        "gas": "0x13def",
        "value": "0x0",
        "input": "0xdf791e50000000000000000000000000d727cf12284ecf6838df2b656ec87e7cd1dde073000000000000000000000000737aa5dc800b102d3ff77cf2400ca512ecfec2ab000000000000000000000000000000000000000000000000000000000000000a",
        "nonce": "0xde",
        "chainId": "0xaa36a7"
      },
      "additionalContracts": [],
      "isFixedGasLimit": false
    },
    {
      "hash": "0xf5efeb9d4c1fa33b0baca85284679dd057fd50fd28b83f6741aefaf84b674843",
      "transactionType": "CALL",
      "contractName": null,
      "contractAddress": "0x737aa5dc800b102d3ff77cf2400ca512ecfec2ab",
      "function": "approve(address,uint256)",
      "arguments": [
        "0xdEDb01eed7786BFB8633c827D4D05Ee5D14Fd732",
        "20"
      ],
      "transaction": {
        "from": "0x8029505591a4e95ce2945b62d46e64dc4ddc9dec",
        "to": "0x737aa5dc800b102d3ff77cf2400ca512ecfec2ab",
        "gas": "0x107ff",
        "value": "0x0",
        "input": "0x095ea7b3000000000000000000000000dedb01eed7786bfb8633c827d4d05ee5d14fd7320000000000000000000000000000000000000000000000000000000000000014",
        "nonce": "0xdf",
        "chainId": "0xaa36a7"
      },
      "additionalContracts": [],
      "isFixedGasLimit": false
    },
    {
      "hash": "0xa7bb2ef66eb4011f94f150a882eac440b35e062401a6a7093c568c30202e00d6",
      "transactionType": "CALL",
      "contractName": null,
      "contractAddress": "0xdedb01eed7786bfb8633c827d4d05ee5d14fd732",
      "function": "swap(address,address,uint256)",
      "arguments": [
        "0x737aA5dc800b102d3Ff77cF2400ca512EcFec2Ab",
        "0xd727cf12284eCF6838dF2b656Ec87e7Cd1Dde073",
        "20"
      ],
      "transaction": {
        "from": "0x8029505591a4e95ce2945b62d46e64dc4ddc9dec",
        "to": "0xdedb01eed7786bfb8633c827d4d05ee5d14fd732",
        "gas": "0x19b0c",
        "value": "0x0",
        "input": "0xdf791e50000000000000000000000000737aa5dc800b102d3ff77cf2400ca512ecfec2ab000000000000000000000000d727cf12284ecf6838df2b656ec87e7cd1dde0730000000000000000000000000000000000000000000000000000000000000014",
        "nonce": "0xe0",
        "chainId": "0xaa36a7"
      },
      "additionalContracts": [],
      "isFixedGasLimit": false
    },
    {
      "hash": "0xc8e847fcc7b938dc3b911471ba6fcf10b019f10d46d3915aabbda7e007196370",
      "transactionType": "CALL",
      "contractName": null,
      "contractAddress": "0xd727cf12284ecf6838df2b656ec87e7cd1dde073",
      "function": "approve(address,uint256)",
      "arguments": [
        "0xdEDb01eed7786BFB8633c827D4D05Ee5D14Fd732",
        "24"
      ],
      "transaction": {
        "from": "0x8029505591a4e95ce2945b62d46e64dc4ddc9dec",
        "to": "0xd727cf12284ecf6838df2b656ec87e7cd1dde073",
        "gas": "0x107ff",
        "value": "0x0",
        "input": "0x095ea7b3000000000000000000000000dedb01eed7786bfb8633c827d4d05ee5d14fd7320000000000000000000000000000000000000000000000000000000000000018",
        "nonce": "0xe1",
        "chainId": "0xaa36a7"
      },
      "additionalContracts": [],
      "isFixedGasLimit": false
    },
    {
      "hash": "0x1968fdf0b7cd09c7784e1d117a992a5d0e1e16d69d101f20ed819338225c2c00",
      "transactionType": "CALL",
      "contractName": null,
      "contractAddress": "0xdedb01eed7786bfb8633c827d4d05ee5d14fd732",
      "function": "swap(address,address,uint256)",
      "arguments": [
        "0xd727cf12284eCF6838dF2b656Ec87e7Cd1Dde073",
        "0x737aA5dc800b102d3Ff77cF2400ca512EcFec2Ab",
        "24"
      ],
      "transaction": {
        "from": "0x8029505591a4e95ce2945b62d46e64dc4ddc9dec",
        "to": "0xdedb01eed7786bfb8633c827d4d05ee5d14fd732",
        "gas": "0x1b255",
        "value": "0x0",
        "input": "0xdf791e50000000000000000000000000d727cf12284ecf6838df2b656ec87e7cd1dde073000000000000000000000000737aa5dc800b102d3ff77cf2400ca512ecfec2ab0000000000000000000000000000000000000000000000000000000000000018",
        "nonce": "0xe2",
        "chainId": "0xaa36a7"
      },
      "additionalContracts": [],
      "isFixedGasLimit": false
    },
    {
      "hash": "0x3721c74fd5a30dbfa2de3c543fc399594b1e909299a48415611afaf12f1a1690",
      "transactionType": "CALL",
      "contractName": null,
      "contractAddress": "0x737aa5dc800b102d3ff77cf2400ca512ecfec2ab",
      "function": "approve(address,uint256)",
      "arguments": [
        "0xdEDb01eed7786BFB8633c827D4D05Ee5D14Fd732",
        "30"
      ],
      "transaction": {
        "from": "0x8029505591a4e95ce2945b62d46e64dc4ddc9dec",
        "to": "0x737aa5dc800b102d3ff77cf2400ca512ecfec2ab",
        "gas": "0x107ff",
        "value": "0x0",
        "input": "0x095ea7b3000000000000000000000000dedb01eed7786bfb8633c827d4d05ee5d14fd732000000000000000000000000000000000000000000000000000000000000001e",
        "nonce": "0xe3",
        "chainId": "0xaa36a7"
      },
      "additionalContracts": [],
      "isFixedGasLimit": false
    },
    {
      "hash": "0xc32110bdd7dfa0fe849496dec7e362b2c62cbd1462a63cc625136184163d4ee0",
      "transactionType": "CALL",
      "contractName": null,
      "contractAddress": "0xdedb01eed7786bfb8633c827d4d05ee5d14fd732",
      "function": "swap(address,address,uint256)",
      "arguments": [
        "0x737aA5dc800b102d3Ff77cF2400ca512EcFec2Ab",
        "0xd727cf12284eCF6838dF2b656Ec87e7Cd1Dde073",
        "30"
      ],
      "transaction": {
        "from": "0x8029505591a4e95ce2945b62d46e64dc4ddc9dec",
        "to": "0xdedb01eed7786bfb8633c827d4d05ee5d14fd732",
        "gas": "0x19b0c",
        "value": "0x0",
        "input": "0xdf791e50000000000000000000000000737aa5dc800b102d3ff77cf2400ca512ecfec2ab000000000000000000000000d727cf12284ecf6838df2b656ec87e7cd1dde073000000000000000000000000000000000000000000000000000000000000001e",
        "nonce": "0xe4",
        "chainId": "0xaa36a7"
      },
      "additionalContracts": [],
      "isFixedGasLimit": false
    },
    {
      "hash": "0x11804d6b602a68908cecf8c39441465150ee04e11c3410f20da76927ddfdd0fe",
      "transactionType": "CALL",
      "contractName": null,
      "contractAddress": "0xd727cf12284ecf6838df2b656ec87e7cd1dde073",
      "function": "approve(address,uint256)",
      "arguments": [
        "0xdEDb01eed7786BFB8633c827D4D05Ee5D14Fd732",
        "41"
      ],
      "transaction": {
        "from": "0x8029505591a4e95ce2945b62d46e64dc4ddc9dec",
        "to": "0xd727cf12284ecf6838df2b656ec87e7cd1dde073",
        "gas": "0x107ff",
        "value": "0x0",
        "input": "0x095ea7b3000000000000000000000000dedb01eed7786bfb8633c827d4d05ee5d14fd7320000000000000000000000000000000000000000000000000000000000000029",
        "nonce": "0xe5",
        "chainId": "0xaa36a7"
      },
      "additionalContracts": [],
      "isFixedGasLimit": false
    },
    {
      "hash": "0x1d2e98bb90323598ee5b25f94d68dbf742cae3c85d03f05e4ef15b803903e01e",
      "transactionType": "CALL",
      "contractName": null,
      "contractAddress": "0xdedb01eed7786bfb8633c827d4d05ee5d14fd732",
      "function": "swap(address,address,uint256)",
      "arguments": [
        "0xd727cf12284eCF6838dF2b656Ec87e7Cd1Dde073",
        "0x737aA5dc800b102d3Ff77cF2400ca512EcFec2Ab",
        "41"
      ],
      "transaction": {
        "from": "0x8029505591a4e95ce2945b62d46e64dc4ddc9dec",
        "to": "0xdedb01eed7786bfb8633c827d4d05ee5d14fd732",
        "gas": "0x1b255",
        "value": "0x0",
        "input": "0xdf791e50000000000000000000000000d727cf12284ecf6838df2b656ec87e7cd1dde073000000000000000000000000737aa5dc800b102d3ff77cf2400ca512ecfec2ab0000000000000000000000000000000000000000000000000000000000000029",
        "nonce": "0xe6",
        "chainId": "0xaa36a7"
      },
      "additionalContracts": [],
      "isFixedGasLimit": false
    },
    {
      "hash": "0x49ab9a8ee54715cc22c1a8e6096ce5af6abd07f09839381915ea08ea36a4dcf5",
      "transactionType": "CALL",
      "contractName": null,
      "contractAddress": "0x737aa5dc800b102d3ff77cf2400ca512ecfec2ab",
      "function": "approve(address,uint256)",
      "arguments": [
        "0xdEDb01eed7786BFB8633c827D4D05Ee5D14Fd732",
        "32"
      ],
      "transaction": {
        "from": "0x8029505591a4e95ce2945b62d46e64dc4ddc9dec",
        "to": "0x737aa5dc800b102d3ff77cf2400ca512ecfec2ab",
        "gas": "0x107ff",
        "value": "0x0",
        "input": "0x095ea7b3000000000000000000000000dedb01eed7786bfb8633c827d4d05ee5d14fd7320000000000000000000000000000000000000000000000000000000000000020",
        "nonce": "0xe7",
        "chainId": "0xaa36a7"
      },
      "additionalContracts": [],
      "isFixedGasLimit": false
    },
    {
      "hash": "0x58c5dfc2ab1520f73a48f656c7d123242bd93ab30a3a73dcdc572a697d56b3ea",
      "transactionType": "CALL",
      "contractName": null,
      "contractAddress": "0xdedb01eed7786bfb8633c827d4d05ee5d14fd732",
      "function": "swap(address,address,uint256)",
      "arguments": [
        "0x737aA5dc800b102d3Ff77cF2400ca512EcFec2Ab",
        "0xd727cf12284eCF6838dF2b656Ec87e7Cd1Dde073",
        "32"
      ],
      "transaction": {
        "from": "0x8029505591a4e95ce2945b62d46e64dc4ddc9dec",
        "to": "0xdedb01eed7786bfb8633c827d4d05ee5d14fd732",
        "gas": "0x1b4f2",
        "value": "0x0",
        "input": "0xdf791e50000000000000000000000000737aa5dc800b102d3ff77cf2400ca512ecfec2ab000000000000000000000000d727cf12284ecf6838df2b656ec87e7cd1dde0730000000000000000000000000000000000000000000000000000000000000020",
        "nonce": "0xe8",
        "chainId": "0xaa36a7"
      },
      "additionalContracts": [],
      "isFixedGasLimit": false
    },
    {
      "hash": "0xaff9c4d85ebc217ca39e4f990db4fa8ff59e130f3ebb31f9ed320320fb1dea59",
      "transactionType": "CALL",
      "contractName": null,
      "contractAddress": "0xd727cf12284ecf6838df2b656ec87e7cd1dde073",
      "function": "approve(address,uint256)",
      "arguments": [
        "0xdEDb01eed7786BFB8633c827D4D05Ee5D14Fd732",
        "19"
      ],
      "transaction": {
        "from": "0x8029505591a4e95ce2945b62d46e64dc4ddc9dec",
        "to": "0xd727cf12284ecf6838df2b656ec87e7cd1dde073",
        "gas": "0x107ff",
        "value": "0x0",
        "input": "0x095ea7b3000000000000000000000000dedb01eed7786bfb8633c827d4d05ee5d14fd7320000000000000000000000000000000000000000000000000000000000000013",
        "nonce": "0xe9",
        "chainId": "0xaa36a7"
      },
      "additionalContracts": [],
      "isFixedGasLimit": false
    },
    {
      "hash": "0xd01e16dbceee3069dfd3e44a54125c24dcee8fb0d291cb27c4d824d30694f5ce",
      "transactionType": "CALL",
      "contractName": null,
      "contractAddress": "0xdedb01eed7786bfb8633c827d4d05ee5d14fd732",
      "function": "swap(address,address,uint256)",
      "arguments": [
        "0xd727cf12284eCF6838dF2b656Ec87e7Cd1Dde073",
        "0x737aA5dc800b102d3Ff77cF2400ca512EcFec2Ab",
        "19"
      ],
      "transaction": {
        "from": "0x8029505591a4e95ce2945b62d46e64dc4ddc9dec",
        "to": "0xdedb01eed7786bfb8633c827d4d05ee5d14fd732",
        "gas": "0x157d5",
        "value": "0x0",
        "input": "0xdf791e50000000000000000000000000d727cf12284ecf6838df2b656ec87e7cd1dde073000000000000000000000000737aa5dc800b102d3ff77cf2400ca512ecfec2ab0000000000000000000000000000000000000000000000000000000000000013",
        "nonce": "0xea",
        "chainId": "0xaa36a7"
      },
      "additionalContracts": [],
      "isFixedGasLimit": false
    },
    {
      "hash": "0x38fce15f33a898ac61a63ef65a040eaa55bf280ed4f6b09f5a94da688f2ce8d5",
      "transactionType": "CALL",
      "contractName": null,
      "contractAddress": "0x737aa5dc800b102d3ff77cf2400ca512ecfec2ab",
      "function": "approve(address,uint256)",
      "arguments": [
        "0xdEDb01eed7786BFB8633c827D4D05Ee5D14Fd732",
        "19"
      ],
      "transaction": {
        "from": "0x8029505591a4e95ce2945b62d46e64dc4ddc9dec",
        "to": "0x737aa5dc800b102d3ff77cf2400ca512ecfec2ab",
        "gas": "0x107ff",
        "value": "0x0",
        "input": "0x095ea7b3000000000000000000000000dedb01eed7786bfb8633c827d4d05ee5d14fd7320000000000000000000000000000000000000000000000000000000000000013",
        "nonce": "0xeb",
        "chainId": "0xaa36a7"
      },
      "additionalContracts": [],
      "isFixedGasLimit": false
    },
    {
      "hash": "0x6eeb8e98e4ba058dd92bcce46c3eb00df3900e1e67f95f1f804405e4bf30a1af",
      "transactionType": "CALL",
      "contractName": null,
      "contractAddress": "0xdedb01eed7786bfb8633c827d4d05ee5d14fd732",
      "function": "swap(address,address,uint256)",
      "arguments": [
        "0x737aA5dc800b102d3Ff77cF2400ca512EcFec2Ab",
        "0xd727cf12284eCF6838dF2b656Ec87e7Cd1Dde073",
        "19"
      ],
      "transaction": {
        "from": "0x8029505591a4e95ce2945b62d46e64dc4ddc9dec",
        "to": "0xdedb01eed7786bfb8633c827d4d05ee5d14fd732",
        "gas": "0x158ae",
        "value": "0x0",
        "input": "0xdf791e50000000000000000000000000737aa5dc800b102d3ff77cf2400ca512ecfec2ab000000000000000000000000d727cf12284ecf6838df2b656ec87e7cd1dde0730000000000000000000000000000000000000000000000000000000000000013",
        "nonce": "0xec",
        "chainId": "0xaa36a7"
      },
      "additionalContracts": [],
      "isFixedGasLimit": false
    },
    {
      "hash": "0x6ece670a940a0a5223e6b1d54a9aa643f0a36a4cbdd2a0f111064d54b969363f",
      "transactionType": "CALL",
      "contractName": null,
      "contractAddress": "0xd727cf12284ecf6838df2b656ec87e7cd1dde073",
      "function": "approve(address,uint256)",
      "arguments": [
        "0xdEDb01eed7786BFB8633c827D4D05Ee5D14Fd732",
        "11"
      ],
      "transaction": {
        "from": "0x8029505591a4e95ce2945b62d46e64dc4ddc9dec",
        "to": "0xd727cf12284ecf6838df2b656ec87e7cd1dde073",
        "gas": "0x107ff",
        "value": "0x0",
        "input": "0x095ea7b3000000000000000000000000dedb01eed7786bfb8633c827d4d05ee5d14fd732000000000000000000000000000000000000000000000000000000000000000b",
        "nonce": "0xed",
        "chainId": "0xaa36a7"
      },
      "additionalContracts": [],
      "isFixedGasLimit": false
    },
    {
      "hash": "0x4a2b95348c552d838a11ff98b81a0208f01e44df4d2ecd9b25b75b6a045cd90f",
      "transactionType": "CALL",
      "contractName": null,
      "contractAddress": "0xdedb01eed7786bfb8633c827d4d05ee5d14fd732",
      "function": "swap(address,address,uint256)",
      "arguments": [
        "0xd727cf12284eCF6838dF2b656Ec87e7Cd1Dde073",
        "0x737aA5dc800b102d3Ff77cF2400ca512EcFec2Ab",
        "11"
      ],
      "transaction": {
        "from": "0x8029505591a4e95ce2945b62d46e64dc4ddc9dec",
        "to": "0xdedb01eed7786bfb8633c827d4d05ee5d14fd732",
        "gas": "0x157d5",
        "value": "0x0",
        "input": "0xdf791e50000000000000000000000000d727cf12284ecf6838df2b656ec87e7cd1dde073000000000000000000000000737aa5dc800b102d3ff77cf2400ca512ecfec2ab000000000000000000000000000000000000000000000000000000000000000b",
        "nonce": "0xee",
        "chainId": "0xaa36a7"
      },
      "additionalContracts": [],
      "isFixedGasLimit": false
    },
    {
      "hash": "0xe511f9dfd3b3bd7143261f2eb76f2997945ee140342860a9bef91d797fdf0d90",
      "transactionType": "CALL",
      "contractName": null,
      "contractAddress": "0x737aa5dc800b102d3ff77cf2400ca512ecfec2ab",
      "function": "approve(address,uint256)",
      "arguments": [
        "0xdEDb01eed7786BFB8633c827D4D05Ee5D14Fd732",
        "21"
      ],
      "transaction": {
        "from": "0x8029505591a4e95ce2945b62d46e64dc4ddc9dec",
        "to": "0x737aa5dc800b102d3ff77cf2400ca512ecfec2ab",
        "gas": "0x107ff",
        "value": "0x0",
        "input": "0x095ea7b3000000000000000000000000dedb01eed7786bfb8633c827d4d05ee5d14fd7320000000000000000000000000000000000000000000000000000000000000015",
        "nonce": "0xef",
        "chainId": "0xaa36a7"
      },
      "additionalContracts": [],
      "isFixedGasLimit": false
    },
    {
      "hash": "0x9c99fc28d3697c020bb9f4646fe5e369aa69336f994b4ace90fb84631c5cb769",
      "transactionType": "CALL",
      "contractName": null,
      "contractAddress": "0xdedb01eed7786bfb8633c827d4d05ee5d14fd732",
      "function": "swap(address,address,uint256)",
      "arguments": [
        "0x737aA5dc800b102d3Ff77cF2400ca512EcFec2Ab",
        "0xd727cf12284eCF6838dF2b656Ec87e7Cd1Dde073",
        "21"
      ],
      "transaction": {
        "from": "0x8029505591a4e95ce2945b62d46e64dc4ddc9dec",
        "to": "0xdedb01eed7786bfb8633c827d4d05ee5d14fd732",
        "gas": "0x158ae",
        "value": "0x0",
        "input": "0xdf791e50000000000000000000000000737aa5dc800b102d3ff77cf2400ca512ecfec2ab000000000000000000000000d727cf12284ecf6838df2b656ec87e7cd1dde0730000000000000000000000000000000000000000000000000000000000000015",
        "nonce": "0xf0",
        "chainId": "0xaa36a7"
      },
      "additionalContracts": [],
      "isFixedGasLimit": false
    },
    {
      "hash": "0xcd76a5d9b5cd90015d1a0f643c642fe5a399444a4041af0a5b7a9d927a00d485",
      "transactionType": "CALL",
      "contractName": null,
      "contractAddress": "0xd727cf12284ecf6838df2b656ec87e7cd1dde073",
      "function": "approve(address,uint256)",
      "arguments": [
        "0xdEDb01eed7786BFB8633c827D4D05Ee5D14Fd732",
        "6"
      ],
      "transaction": {
        "from": "0x8029505591a4e95ce2945b62d46e64dc4ddc9dec",
        "to": "0xd727cf12284ecf6838df2b656ec87e7cd1dde073",
        "gas": "0x107ff",
        "value": "0x0",
        "input": "0x095ea7b3000000000000000000000000dedb01eed7786bfb8633c827d4d05ee5d14fd7320000000000000000000000000000000000000000000000000000000000000006",
        "nonce": "0xf1",
        "chainId": "0xaa36a7"
      },
      "additionalContracts": [],
      "isFixedGasLimit": false
    },
    {
      "hash": "0xd0934fc4e927d746f681fe31a088708f93543632c3ae0630c1391cf0a10d7178",
      "transactionType": "CALL",
      "contractName": null,
      "contractAddress": "0xdedb01eed7786bfb8633c827d4d05ee5d14fd732",
      "function": "swap(address,address,uint256)",
      "arguments": [
        "0xd727cf12284eCF6838dF2b656Ec87e7Cd1Dde073",
        "0x737aA5dc800b102d3Ff77cF2400ca512EcFec2Ab",
        "6"
      ],
      "transaction": {
        "from": "0x8029505591a4e95ce2945b62d46e64dc4ddc9dec",
        "to": "0xdedb01eed7786bfb8633c827d4d05ee5d14fd732",
        "gas": "0x13def",
        "value": "0x0",
        "input": "0xdf791e50000000000000000000000000d727cf12284ecf6838df2b656ec87e7cd1dde073000000000000000000000000737aa5dc800b102d3ff77cf2400ca512ecfec2ab0000000000000000000000000000000000000000000000000000000000000006",
        "nonce": "0xf2",
        "chainId": "0xaa36a7"
      },
      "additionalContracts": [],
      "isFixedGasLimit": false
    }
  ],
  "receipts": [
    {
      "status": "0x1",
      "cumulativeGasUsed": "0x5ff98e",
      "logs": [
        {
          "address": "0xd727cf12284ecf6838df2b656ec87e7cd1dde073",
          "topics": [
            "0x8c5be1e5ebec7d5bd14f71427d1e84f3dd0314c0f7b2291e5b200ac8c7c3b925",
            "0x0000000000000000000000008029505591a4e95ce2945b62d46e64dc4ddc9dec",
            "0x000000000000000000000000dedb01eed7786bfb8633c827d4d05ee5d14fd732"
          ],
          "data": "0x000000000000000000000000000000000000000000000000000000000000000a",
          "blockHash": "0x446d6efe91f439c4330c712acc65e9b8aa267720b57424185203329c79e87ef7",
          "blockNumber": "0x6d576e",
          "transactionHash": "0x8d6a613c93e5c33e2a437c1214e823d3b7cab1e733627689c726c0abe23b2356",
          "transactionIndex": "0xa0",
          "logIndex": "0x29",
          "removed": false
        }
      ],
      "logsBloom": "0x00000000000000000000000000000000000000000000000000000000000000000000000000000040000000000000000000000001000000000000000000200000000000000000000000000000000000000000000040008000000000000000000000000000000000000000000000000000000000000000000000000000000000000000000000000000000000000000000000000000000000000000000000000000020000000000000000000000000000000000000000006000000000000000000000000000000000000000000000000000000000000000000000000000000400000018000000000000000000000000000000000000000000008000000000000000",
      "type": "0x2",
      "transactionHash": "0x8d6a613c93e5c33e2a437c1214e823d3b7cab1e733627689c726c0abe23b2356",
      "transactionIndex": "0xa0",
      "blockHash": "0x446d6efe91f439c4330c712acc65e9b8aa267720b57424185203329c79e87ef7",
      "blockNumber": "0x6d576e",
      "gasUsed": "0xb483",
      "effectiveGasPrice": "0xbfb35a18",
      "from": "0x8029505591a4e95ce2945b62d46e64dc4ddc9dec",
      "to": "0xd727cf12284ecf6838df2b656ec87e7cd1dde073",
      "contractAddress": null
    },
    {
      "status": "0x1",
      "cumulativeGasUsed": "0x62f9ad",
      "logs": [
        {
          "address": "0xd727cf12284ecf6838df2b656ec87e7cd1dde073",
          "topics": [
            "0xddf252ad1be2c89b69c2b068fc378daa952ba7f163c4a11628f55a4df523b3ef",
            "0x0000000000000000000000008029505591a4e95ce2945b62d46e64dc4ddc9dec",
            "0x000000000000000000000000dedb01eed7786bfb8633c827d4d05ee5d14fd732"
          ],
          "data": "0x000000000000000000000000000000000000000000000000000000000000000a",
          "blockHash": "0x446d6efe91f439c4330c712acc65e9b8aa267720b57424185203329c79e87ef7",
          "blockNumber": "0x6d576e",
          "transactionHash": "0x4e48b4438587287a003145e4268eedee762d60c3f9cc85e613316b0b992e2d1b",
          "transactionIndex": "0xa7",
          "logIndex": "0x2a",
          "removed": false
        },
        {
          "address": "0xd727cf12284ecf6838df2b656ec87e7cd1dde073",
          "topics": [
            "0x8c5be1e5ebec7d5bd14f71427d1e84f3dd0314c0f7b2291e5b200ac8c7c3b925",
            "0x0000000000000000000000008029505591a4e95ce2945b62d46e64dc4ddc9dec",
            "0x000000000000000000000000dedb01eed7786bfb8633c827d4d05ee5d14fd732"
          ],
          "data": "0x0000000000000000000000000000000000000000000000000000000000000000",
          "blockHash": "0x446d6efe91f439c4330c712acc65e9b8aa267720b57424185203329c79e87ef7",
          "blockNumber": "0x6d576e",
          "transactionHash": "0x4e48b4438587287a003145e4268eedee762d60c3f9cc85e613316b0b992e2d1b",
          "transactionIndex": "0xa7",
          "logIndex": "0x2b",
          "removed": false
        },
        {
          "address": "0x737aa5dc800b102d3ff77cf2400ca512ecfec2ab",
          "topics": [
            "0xddf252ad1be2c89b69c2b068fc378daa952ba7f163c4a11628f55a4df523b3ef",
            "0x000000000000000000000000dedb01eed7786bfb8633c827d4d05ee5d14fd732",
            "0x0000000000000000000000008029505591a4e95ce2945b62d46e64dc4ddc9dec"
          ],
          "data": "0x000000000000000000000000000000000000000000000000000000000000000a",
          "blockHash": "0x446d6efe91f439c4330c712acc65e9b8aa267720b57424185203329c79e87ef7",
          "blockNumber": "0x6d576e",
          "transactionHash": "0x4e48b4438587287a003145e4268eedee762d60c3f9cc85e613316b0b992e2d1b",
          "transactionIndex": "0xa7",
          "logIndex": "0x2c",
          "removed": false
        }
      ],
      "logsBloom": "0x00000000000000000000000000000000000000000000000000000000000000000000000000000040000000000000004000000001000000000000000000200000000000000000000000000008000000000000000040008000000000000000100000000000000000000000000000000000000000000000000000000010000000000000000000000000000000000000000000000000000000000000000000000000020000000000000000000000000000000000000000006000000000000000000000000002000000040000000000000000000000000000000000000000000400000018000000000000000000000000000000000000000000008000000000000000",
      "type": "0x2",
      "transactionHash": "0x4e48b4438587287a003145e4268eedee762d60c3f9cc85e613316b0b992e2d1b",
      "transactionIndex": "0xa7",
      "blockHash": "0x446d6efe91f439c4330c712acc65e9b8aa267720b57424185203329c79e87ef7",
      "blockNumber": "0x6d576e",
      "gasUsed": "0xe62f",
      "effectiveGasPrice": "0xbfb35a18",
      "from": "0x8029505591a4e95ce2945b62d46e64dc4ddc9dec",
      "to": "0xdedb01eed7786bfb8633c827d4d05ee5d14fd732",
      "contractAddress": null
    },
    {
      "status": "0x1",
      "cumulativeGasUsed": "0x667b70",
      "logs": [
        {
          "address": "0x737aa5dc800b102d3ff77cf2400ca512ecfec2ab",
          "topics": [
            "0x8c5be1e5ebec7d5bd14f71427d1e84f3dd0314c0f7b2291e5b200ac8c7c3b925",
            "0x0000000000000000000000008029505591a4e95ce2945b62d46e64dc4ddc9dec",
            "0x000000000000000000000000dedb01eed7786bfb8633c827d4d05ee5d14fd732"
          ],
          "data": "0x0000000000000000000000000000000000000000000000000000000000000014",
          "blockHash": "0x446d6efe91f439c4330c712acc65e9b8aa267720b57424185203329c79e87ef7",
          "blockNumber": "0x6d576e",
          "transactionHash": "0xf5efeb9d4c1fa33b0baca85284679dd057fd50fd28b83f6741aefaf84b674843",
          "transactionIndex": "0xb0",
          "logIndex": "0x2d",
          "removed": false
        }
      ],
      "logsBloom": "0x00000000000000000000000000000000000000000000000000000000000000000000000000000000000000000000004000000000000000000000000000200000000000000000000000000000000000000000000040008000000000000000100000000000000000000000000000000000000000000000000000000000000000000000000000000000000000000000000000000000000000000000000000000000020000000000000000000000000000000000000000006000000000000000000000000000000000040000000000000000000000000000000000000000000400000018000000000000000000000000000000000000000000000000000000000000",
      "type": "0x2",
      "transactionHash": "0xf5efeb9d4c1fa33b0baca85284679dd057fd50fd28b83f6741aefaf84b674843",
      "transactionIndex": "0xb0",
      "blockHash": "0x446d6efe91f439c4330c712acc65e9b8aa267720b57424185203329c79e87ef7",
      "blockNumber": "0x6d576e",
      "gasUsed": "0xb483",
      "effectiveGasPrice": "0xbfb35a18",
      "from": "0x8029505591a4e95ce2945b62d46e64dc4ddc9dec",
      "to": "0x737aa5dc800b102d3ff77cf2400ca512ecfec2ab",
      "contractAddress": null
    },
    {
      "status": "0x1",
      "cumulativeGasUsed": "0x67a508",
      "logs": [
        {
          "address": "0x737aa5dc800b102d3ff77cf2400ca512ecfec2ab",
          "topics": [
            "0xddf252ad1be2c89b69c2b068fc378daa952ba7f163c4a11628f55a4df523b3ef",
            "0x0000000000000000000000008029505591a4e95ce2945b62d46e64dc4ddc9dec",
            "0x000000000000000000000000dedb01eed7786bfb8633c827d4d05ee5d14fd732"
          ],
          "data": "0x0000000000000000000000000000000000000000000000000000000000000014",
          "blockHash": "0x446d6efe91f439c4330c712acc65e9b8aa267720b57424185203329c79e87ef7",
          "blockNumber": "0x6d576e",
          "transactionHash": "0xa7bb2ef66eb4011f94f150a882eac440b35e062401a6a7093c568c30202e00d6",
          "transactionIndex": "0xb1",
          "logIndex": "0x2e",
          "removed": false
        },
        {
          "address": "0x737aa5dc800b102d3ff77cf2400ca512ecfec2ab",
          "topics": [
            "0x8c5be1e5ebec7d5bd14f71427d1e84f3dd0314c0f7b2291e5b200ac8c7c3b925",
            "0x0000000000000000000000008029505591a4e95ce2945b62d46e64dc4ddc9dec",
            "0x000000000000000000000000dedb01eed7786bfb8633c827d4d05ee5d14fd732"
          ],
          "data": "0x0000000000000000000000000000000000000000000000000000000000000000",
          "blockHash": "0x446d6efe91f439c4330c712acc65e9b8aa267720b57424185203329c79e87ef7",
          "blockNumber": "0x6d576e",
          "transactionHash": "0xa7bb2ef66eb4011f94f150a882eac440b35e062401a6a7093c568c30202e00d6",
          "transactionIndex": "0xb1",
          "logIndex": "0x2f",
          "removed": false
        },
        {
          "address": "0xd727cf12284ecf6838df2b656ec87e7cd1dde073",
          "topics": [
            "0xddf252ad1be2c89b69c2b068fc378daa952ba7f163c4a11628f55a4df523b3ef",
            "0x000000000000000000000000dedb01eed7786bfb8633c827d4d05ee5d14fd732",
            "0x0000000000000000000000008029505591a4e95ce2945b62d46e64dc4ddc9dec"
          ],
          "data": "0x0000000000000000000000000000000000000000000000000000000000000018",
          "blockHash": "0x446d6efe91f439c4330c712acc65e9b8aa267720b57424185203329c79e87ef7",
          "blockNumber": "0x6d576e",
          "transactionHash": "0xa7bb2ef66eb4011f94f150a882eac440b35e062401a6a7093c568c30202e00d6",
          "transactionIndex": "0xb1",
          "logIndex": "0x30",
          "removed": false
        }
      ],
      "logsBloom": "0x00000000000000000000000000000000000000000000000000000000000000000000000000000040000000000000004000000001000000000000000000200000000000000000000000000008000000000000000040008000000000000000100000000000000000000000000000000000000000000000000000000010000000000000000000000000000000000000000000000000000000000000000000000000020000000000000000000000000000000000000000006000000000000000000000000002000000040000000000000000000000000000000000000000000400000018000000000000000000000000000000000000000000008000000000000000",
      "type": "0x2",
      "transactionHash": "0xa7bb2ef66eb4011f94f150a882eac440b35e062401a6a7093c568c30202e00d6",
      "transactionIndex": "0xb1",
      "blockHash": "0x446d6efe91f439c4330c712acc65e9b8aa267720b57424185203329c79e87ef7",
      "blockNumber": "0x6d576e",
      "gasUsed": "0x12998",
      "effectiveGasPrice": "0xbfb35a18",
      "from": "0x8029505591a4e95ce2945b62d46e64dc4ddc9dec",
      "to": "0xdedb01eed7786bfb8633c827d4d05ee5d14fd732",
      "contractAddress": null
    },
    {
      "status": "0x1",
      "cumulativeGasUsed": "0x68598b",
      "logs": [
        {
          "address": "0xd727cf12284ecf6838df2b656ec87e7cd1dde073",
          "topics": [
            "0x8c5be1e5ebec7d5bd14f71427d1e84f3dd0314c0f7b2291e5b200ac8c7c3b925",
            "0x0000000000000000000000008029505591a4e95ce2945b62d46e64dc4ddc9dec",
            "0x000000000000000000000000dedb01eed7786bfb8633c827d4d05ee5d14fd732"
          ],
          "data": "0x0000000000000000000000000000000000000000000000000000000000000018",
          "blockHash": "0x446d6efe91f439c4330c712acc65e9b8aa267720b57424185203329c79e87ef7",
          "blockNumber": "0x6d576e",
          "transactionHash": "0xc8e847fcc7b938dc3b911471ba6fcf10b019f10d46d3915aabbda7e007196370",
          "transactionIndex": "0xb2",
          "logIndex": "0x31",
          "removed": false
        }
      ],
      "logsBloom": "0x00000000000000000000000000000000000000000000000000000000000000000000000000000040000000000000000000000001000000000000000000200000000000000000000000000000000000000000000040008000000000000000000000000000000000000000000000000000000000000000000000000000000000000000000000000000000000000000000000000000000000000000000000000000020000000000000000000000000000000000000000006000000000000000000000000000000000000000000000000000000000000000000000000000000400000018000000000000000000000000000000000000000000008000000000000000",
      "type": "0x2",
      "transactionHash": "0xc8e847fcc7b938dc3b911471ba6fcf10b019f10d46d3915aabbda7e007196370",
      "transactionIndex": "0xb2",
      "blockHash": "0x446d6efe91f439c4330c712acc65e9b8aa267720b57424185203329c79e87ef7",
      "blockNumber": "0x6d576e",
      "gasUsed": "0xb483",
      "effectiveGasPrice": "0xbfb35a18",
      "from": "0x8029505591a4e95ce2945b62d46e64dc4ddc9dec",
      "to": "0xd727cf12284ecf6838df2b656ec87e7cd1dde073",
      "contractAddress": null
    },
    {
      "status": "0x1",
      "cumulativeGasUsed": "0x69dc2e",
      "logs": [
        {
          "address": "0xd727cf12284ecf6838df2b656ec87e7cd1dde073",
          "topics": [
            "0xddf252ad1be2c89b69c2b068fc378daa952ba7f163c4a11628f55a4df523b3ef",
            "0x0000000000000000000000008029505591a4e95ce2945b62d46e64dc4ddc9dec",
            "0x000000000000000000000000dedb01eed7786bfb8633c827d4d05ee5d14fd732"
          ],
          "data": "0x0000000000000000000000000000000000000000000000000000000000000018",
          "blockHash": "0x446d6efe91f439c4330c712acc65e9b8aa267720b57424185203329c79e87ef7",
          "blockNumber": "0x6d576e",
          "transactionHash": "0x1968fdf0b7cd09c7784e1d117a992a5d0e1e16d69d101f20ed819338225c2c00",
          "transactionIndex": "0xb4",
          "logIndex": "0x32",
          "removed": false
        },
        {
          "address": "0xd727cf12284ecf6838df2b656ec87e7cd1dde073",
          "topics": [
            "0x8c5be1e5ebec7d5bd14f71427d1e84f3dd0314c0f7b2291e5b200ac8c7c3b925",
            "0x0000000000000000000000008029505591a4e95ce2945b62d46e64dc4ddc9dec",
            "0x000000000000000000000000dedb01eed7786bfb8633c827d4d05ee5d14fd732"
          ],
          "data": "0x0000000000000000000000000000000000000000000000000000000000000000",
          "blockHash": "0x446d6efe91f439c4330c712acc65e9b8aa267720b57424185203329c79e87ef7",
          "blockNumber": "0x6d576e",
          "transactionHash": "0x1968fdf0b7cd09c7784e1d117a992a5d0e1e16d69d101f20ed819338225c2c00",
          "transactionIndex": "0xb4",
          "logIndex": "0x33",
          "removed": false
        },
        {
          "address": "0x737aa5dc800b102d3ff77cf2400ca512ecfec2ab",
          "topics": [
            "0xddf252ad1be2c89b69c2b068fc378daa952ba7f163c4a11628f55a4df523b3ef",
            "0x000000000000000000000000dedb01eed7786bfb8633c827d4d05ee5d14fd732",
            "0x0000000000000000000000008029505591a4e95ce2945b62d46e64dc4ddc9dec"
          ],
          "data": "0x000000000000000000000000000000000000000000000000000000000000001e",
          "blockHash": "0x446d6efe91f439c4330c712acc65e9b8aa267720b57424185203329c79e87ef7",
          "blockNumber": "0x6d576e",
          "transactionHash": "0x1968fdf0b7cd09c7784e1d117a992a5d0e1e16d69d101f20ed819338225c2c00",
          "transactionIndex": "0xb4",
          "logIndex": "0x34",
          "removed": false
        }
      ],
      "logsBloom": "0x00000000000000000000000000000000000000000000000000000000000000000000000000000040000000000000004000000001000000000000000000200000000000000000000000000008000000000000000040008000000000000000100000000000000000000000000000000000000000000000000000000010000000000000000000000000000000000000000000000000000000000000000000000000020000000000000000000000000000000000000000006000000000000000000000000002000000040000000000000000000000000000000000000000000400000018000000000000000000000000000000000000000000008000000000000000",
      "type": "0x2",
      "transactionHash": "0x1968fdf0b7cd09c7784e1d117a992a5d0e1e16d69d101f20ed819338225c2c00",
      "transactionIndex": "0xb4",
      "blockHash": "0x446d6efe91f439c4330c712acc65e9b8aa267720b57424185203329c79e87ef7",
      "blockNumber": "0x6d576e",
      "gasUsed": "0x128fb",
      "effectiveGasPrice": "0xbfb35a18",
      "from": "0x8029505591a4e95ce2945b62d46e64dc4ddc9dec",
      "to": "0xdedb01eed7786bfb8633c827d4d05ee5d14fd732",
      "contractAddress": null
    },
    {
      "status": "0x1",
      "cumulativeGasUsed": "0x6aea59",
      "logs": [
        {
          "address": "0x737aa5dc800b102d3ff77cf2400ca512ecfec2ab",
          "topics": [
            "0x8c5be1e5ebec7d5bd14f71427d1e84f3dd0314c0f7b2291e5b200ac8c7c3b925",
            "0x0000000000000000000000008029505591a4e95ce2945b62d46e64dc4ddc9dec",
            "0x000000000000000000000000dedb01eed7786bfb8633c827d4d05ee5d14fd732"
          ],
          "data": "0x000000000000000000000000000000000000000000000000000000000000001e",
          "blockHash": "0x446d6efe91f439c4330c712acc65e9b8aa267720b57424185203329c79e87ef7",
          "blockNumber": "0x6d576e",
          "transactionHash": "0x3721c74fd5a30dbfa2de3c543fc399594b1e909299a48415611afaf12f1a1690",
          "transactionIndex": "0xb6",
          "logIndex": "0x35",
          "removed": false
        }
      ],
      "logsBloom": "0x00000000000000000000000000000000000000000000000000000000000000000000000000000000000000000000004000000000000000000000000000200000000000000000000000000000000000000000000040008000000000000000100000000000000000000000000000000000000000000000000000000000000000000000000000000000000000000000000000000000000000000000000000000000020000000000000000000000000000000000000000006000000000000000000000000000000000040000000000000000000000000000000000000000000400000018000000000000000000000000000000000000000000000000000000000000",
      "type": "0x2",
      "transactionHash": "0x3721c74fd5a30dbfa2de3c543fc399594b1e909299a48415611afaf12f1a1690",
      "transactionIndex": "0xb6",
      "blockHash": "0x446d6efe91f439c4330c712acc65e9b8aa267720b57424185203329c79e87ef7",
      "blockNumber": "0x6d576e",
      "gasUsed": "0xb483",
      "effectiveGasPrice": "0xbfb35a18",
      "from": "0x8029505591a4e95ce2945b62d46e64dc4ddc9dec",
      "to": "0x737aa5dc800b102d3ff77cf2400ca512ecfec2ab",
      "contractAddress": null
    },
    {
      "status": "0x1",
      "cumulativeGasUsed": "0x6c13f1",
      "logs": [
        {
          "address": "0x737aa5dc800b102d3ff77cf2400ca512ecfec2ab",
          "topics": [
            "0xddf252ad1be2c89b69c2b068fc378daa952ba7f163c4a11628f55a4df523b3ef",
            "0x0000000000000000000000008029505591a4e95ce2945b62d46e64dc4ddc9dec",
            "0x000000000000000000000000dedb01eed7786bfb8633c827d4d05ee5d14fd732"
          ],
          "data": "0x000000000000000000000000000000000000000000000000000000000000001e",
          "blockHash": "0x446d6efe91f439c4330c712acc65e9b8aa267720b57424185203329c79e87ef7",
          "blockNumber": "0x6d576e",
          "transactionHash": "0xc32110bdd7dfa0fe849496dec7e362b2c62cbd1462a63cc625136184163d4ee0",
          "transactionIndex": "0xb7",
          "logIndex": "0x36",
          "removed": false
        },
        {
          "address": "0x737aa5dc800b102d3ff77cf2400ca512ecfec2ab",
          "topics": [
            "0x8c5be1e5ebec7d5bd14f71427d1e84f3dd0314c0f7b2291e5b200ac8c7c3b925",
            "0x0000000000000000000000008029505591a4e95ce2945b62d46e64dc4ddc9dec",
            "0x000000000000000000000000dedb01eed7786bfb8633c827d4d05ee5d14fd732"
          ],
          "data": "0x0000000000000000000000000000000000000000000000000000000000000000",
          "blockHash": "0x446d6efe91f439c4330c712acc65e9b8aa267720b57424185203329c79e87ef7",
          "blockNumber": "0x6d576e",
          "transactionHash": "0xc32110bdd7dfa0fe849496dec7e362b2c62cbd1462a63cc625136184163d4ee0",
          "transactionIndex": "0xb7",
          "logIndex": "0x37",
          "removed": false
        },
        {
          "address": "0xd727cf12284ecf6838df2b656ec87e7cd1dde073",
          "topics": [
            "0xddf252ad1be2c89b69c2b068fc378daa952ba7f163c4a11628f55a4df523b3ef",
            "0x000000000000000000000000dedb01eed7786bfb8633c827d4d05ee5d14fd732",
            "0x0000000000000000000000008029505591a4e95ce2945b62d46e64dc4ddc9dec"
          ],
          "data": "0x0000000000000000000000000000000000000000000000000000000000000029",
          "blockHash": "0x446d6efe91f439c4330c712acc65e9b8aa267720b57424185203329c79e87ef7",
          "blockNumber": "0x6d576e",
          "transactionHash": "0xc32110bdd7dfa0fe849496dec7e362b2c62cbd1462a63cc625136184163d4ee0",
          "transactionIndex": "0xb7",
          "logIndex": "0x38",
          "removed": false
        }
      ],
      "logsBloom": "0x00000000000000000000000000000000000000000000000000000000000000000000000000000040000000000000004000000001000000000000000000200000000000000000000000000008000000000000000040008000000000000000100000000000000000000000000000000000000000000000000000000010000000000000000000000000000000000000000000000000000000000000000000000000020000000000000000000000000000000000000000006000000000000000000000000002000000040000000000000000000000000000000000000000000400000018000000000000000000000000000000000000000000008000000000000000",
      "type": "0x2",
      "transactionHash": "0xc32110bdd7dfa0fe849496dec7e362b2c62cbd1462a63cc625136184163d4ee0",
      "transactionIndex": "0xb7",
      "blockHash": "0x446d6efe91f439c4330c712acc65e9b8aa267720b57424185203329c79e87ef7",
      "blockNumber": "0x6d576e",
      "gasUsed": "0x12998",
      "effectiveGasPrice": "0xbfb35a18",
      "from": "0x8029505591a4e95ce2945b62d46e64dc4ddc9dec",
      "to": "0xdedb01eed7786bfb8633c827d4d05ee5d14fd732",
      "contractAddress": null
    },
    {
      "status": "0x1",
      "cumulativeGasUsed": "0x6d7bc4",
      "logs": [
        {
          "address": "0xd727cf12284ecf6838df2b656ec87e7cd1dde073",
          "topics": [
            "0x8c5be1e5ebec7d5bd14f71427d1e84f3dd0314c0f7b2291e5b200ac8c7c3b925",
            "0x0000000000000000000000008029505591a4e95ce2945b62d46e64dc4ddc9dec",
            "0x000000000000000000000000dedb01eed7786bfb8633c827d4d05ee5d14fd732"
          ],
          "data": "0x0000000000000000000000000000000000000000000000000000000000000029",
          "blockHash": "0x446d6efe91f439c4330c712acc65e9b8aa267720b57424185203329c79e87ef7",
          "blockNumber": "0x6d576e",
          "transactionHash": "0x11804d6b602a68908cecf8c39441465150ee04e11c3410f20da76927ddfdd0fe",
          "transactionIndex": "0xba",
          "logIndex": "0x39",
          "removed": false
        }
      ],
      "logsBloom": "0x00000000000000000000000000000000000000000000000000000000000000000000000000000040000000000000000000000001000000000000000000200000000000000000000000000000000000000000000040008000000000000000000000000000000000000000000000000000000000000000000000000000000000000000000000000000000000000000000000000000000000000000000000000000020000000000000000000000000000000000000000006000000000000000000000000000000000000000000000000000000000000000000000000000000400000018000000000000000000000000000000000000000000008000000000000000",
      "type": "0x2",
      "transactionHash": "0x11804d6b602a68908cecf8c39441465150ee04e11c3410f20da76927ddfdd0fe",
      "transactionIndex": "0xba",
      "blockHash": "0x446d6efe91f439c4330c712acc65e9b8aa267720b57424185203329c79e87ef7",
      "blockNumber": "0x6d576e",
      "gasUsed": "0xb483",
      "effectiveGasPrice": "0xbfb35a18",
      "from": "0x8029505591a4e95ce2945b62d46e64dc4ddc9dec",
      "to": "0xd727cf12284ecf6838df2b656ec87e7cd1dde073",
      "contractAddress": null
    },
    {
      "status": "0x1",
      "cumulativeGasUsed": "0x711857",
      "logs": [
        {
          "address": "0xd727cf12284ecf6838df2b656ec87e7cd1dde073",
          "topics": [
            "0xddf252ad1be2c89b69c2b068fc378daa952ba7f163c4a11628f55a4df523b3ef",
            "0x0000000000000000000000008029505591a4e95ce2945b62d46e64dc4ddc9dec",
            "0x000000000000000000000000dedb01eed7786bfb8633c827d4d05ee5d14fd732"
          ],
          "data": "0x0000000000000000000000000000000000000000000000000000000000000029",
          "blockHash": "0x446d6efe91f439c4330c712acc65e9b8aa267720b57424185203329c79e87ef7",
          "blockNumber": "0x6d576e",
          "transactionHash": "0x1d2e98bb90323598ee5b25f94d68dbf742cae3c85d03f05e4ef15b803903e01e",
          "transactionIndex": "0xc2",
          "logIndex": "0x3a",
          "removed": false
        },
        {
          "address": "0xd727cf12284ecf6838df2b656ec87e7cd1dde073",
          "topics": [
            "0x8c5be1e5ebec7d5bd14f71427d1e84f3dd0314c0f7b2291e5b200ac8c7c3b925",
            "0x0000000000000000000000008029505591a4e95ce2945b62d46e64dc4ddc9dec",
            "0x000000000000000000000000dedb01eed7786bfb8633c827d4d05ee5d14fd732"
          ],
          "data": "0x0000000000000000000000000000000000000000000000000000000000000000",
          "blockHash": "0x446d6efe91f439c4330c712acc65e9b8aa267720b57424185203329c79e87ef7",
          "blockNumber": "0x6d576e",
          "transactionHash": "0x1d2e98bb90323598ee5b25f94d68dbf742cae3c85d03f05e4ef15b803903e01e",
          "transactionIndex": "0xc2",
          "logIndex": "0x3b",
          "removed": false
        },
        {
          "address": "0x737aa5dc800b102d3ff77cf2400ca512ecfec2ab",
          "topics": [
            "0xddf252ad1be2c89b69c2b068fc378daa952ba7f163c4a11628f55a4df523b3ef",
            "0x000000000000000000000000dedb01eed7786bfb8633c827d4d05ee5d14fd732",
            "0x0000000000000000000000008029505591a4e95ce2945b62d46e64dc4ddc9dec"
          ],
          "data": "0x0000000000000000000000000000000000000000000000000000000000000041",
          "blockHash": "0x446d6efe91f439c4330c712acc65e9b8aa267720b57424185203329c79e87ef7",
          "blockNumber": "0x6d576e",
          "transactionHash": "0x1d2e98bb90323598ee5b25f94d68dbf742cae3c85d03f05e4ef15b803903e01e",
          "transactionIndex": "0xc2",
          "logIndex": "0x3c",
          "removed": false
        }
      ],
      "logsBloom": "0x00000000000000000000000000000000000000000000000000000000000000000000000000000040000000000000004000000001000000000000000000200000000000000000000000000008000000000000000040008000000000000000100000000000000000000000000000000000000000000000000000000010000000000000000000000000000000000000000000000000000000000000000000000000020000000000000000000000000000000000000000006000000000000000000000000002000000040000000000000000000000000000000000000000000400000018000000000000000000000000000000000000000000008000000000000000",
      "type": "0x2",
      "transactionHash": "0x1d2e98bb90323598ee5b25f94d68dbf742cae3c85d03f05e4ef15b803903e01e",
      "transactionIndex": "0xc2",
      "blockHash": "0x446d6efe91f439c4330c712acc65e9b8aa267720b57424185203329c79e87ef7",
      "blockNumber": "0x6d576e",
      "gasUsed": "0x128fb",
      "effectiveGasPrice": "0xbfb35a18",
      "from": "0x8029505591a4e95ce2945b62d46e64dc4ddc9dec",
      "to": "0xdedb01eed7786bfb8633c827d4d05ee5d14fd732",
      "contractAddress": null
    },
    {
      "status": "0x1",
      "cumulativeGasUsed": "0x71ccda",
      "logs": [
        {
          "address": "0x737aa5dc800b102d3ff77cf2400ca512ecfec2ab",
          "topics": [
            "0x8c5be1e5ebec7d5bd14f71427d1e84f3dd0314c0f7b2291e5b200ac8c7c3b925",
            "0x0000000000000000000000008029505591a4e95ce2945b62d46e64dc4ddc9dec",
            "0x000000000000000000000000dedb01eed7786bfb8633c827d4d05ee5d14fd732"
          ],
          "data": "0x0000000000000000000000000000000000000000000000000000000000000020",
          "blockHash": "0x446d6efe91f439c4330c712acc65e9b8aa267720b57424185203329c79e87ef7",
          "blockNumber": "0x6d576e",
          "transactionHash": "0x49ab9a8ee54715cc22c1a8e6096ce5af6abd07f09839381915ea08ea36a4dcf5",
          "transactionIndex": "0xc3",
          "logIndex": "0x3d",
          "removed": false
        }
      ],
      "logsBloom": "0x00000000000000000000000000000000000000000000000000000000000000000000000000000000000000000000004000000000000000000000000000200000000000000000000000000000000000000000000040008000000000000000100000000000000000000000000000000000000000000000000000000000000000000000000000000000000000000000000000000000000000000000000000000000020000000000000000000000000000000000000000006000000000000000000000000000000000040000000000000000000000000000000000000000000400000018000000000000000000000000000000000000000000000000000000000000",
      "type": "0x2",
      "transactionHash": "0x49ab9a8ee54715cc22c1a8e6096ce5af6abd07f09839381915ea08ea36a4dcf5",
      "transactionIndex": "0xc3",
      "blockHash": "0x446d6efe91f439c4330c712acc65e9b8aa267720b57424185203329c79e87ef7",
      "blockNumber": "0x6d576e",
      "gasUsed": "0xb483",
      "effectiveGasPrice": "0xbfb35a18",
      "from": "0x8029505591a4e95ce2945b62d46e64dc4ddc9dec",
      "to": "0x737aa5dc800b102d3ff77cf2400ca512ecfec2ab",
      "contractAddress": null
    },
    {
      "status": "0x1",
      "cumulativeGasUsed": "0x730932",
      "logs": [
        {
          "address": "0x737aa5dc800b102d3ff77cf2400ca512ecfec2ab",
          "topics": [
            "0xddf252ad1be2c89b69c2b068fc378daa952ba7f163c4a11628f55a4df523b3ef",
            "0x0000000000000000000000008029505591a4e95ce2945b62d46e64dc4ddc9dec",
            "0x000000000000000000000000dedb01eed7786bfb8633c827d4d05ee5d14fd732"
          ],
          "data": "0x0000000000000000000000000000000000000000000000000000000000000020",
          "blockHash": "0x446d6efe91f439c4330c712acc65e9b8aa267720b57424185203329c79e87ef7",
          "blockNumber": "0x6d576e",
          "transactionHash": "0x58c5dfc2ab1520f73a48f656c7d123242bd93ab30a3a73dcdc572a697d56b3ea",
          "transactionIndex": "0xc4",
          "logIndex": "0x3e",
          "removed": false
        },
        {
          "address": "0x737aa5dc800b102d3ff77cf2400ca512ecfec2ab",
          "topics": [
            "0x8c5be1e5ebec7d5bd14f71427d1e84f3dd0314c0f7b2291e5b200ac8c7c3b925",
            "0x0000000000000000000000008029505591a4e95ce2945b62d46e64dc4ddc9dec",
            "0x000000000000000000000000dedb01eed7786bfb8633c827d4d05ee5d14fd732"
          ],
          "data": "0x0000000000000000000000000000000000000000000000000000000000000000",
          "blockHash": "0x446d6efe91f439c4330c712acc65e9b8aa267720b57424185203329c79e87ef7",
          "blockNumber": "0x6d576e",
          "transactionHash": "0x58c5dfc2ab1520f73a48f656c7d123242bd93ab30a3a73dcdc572a697d56b3ea",
          "transactionIndex": "0xc4",
          "logIndex": "0x3f",
          "removed": false
        },
        {
          "address": "0xd727cf12284ecf6838df2b656ec87e7cd1dde073",
          "topics": [
            "0xddf252ad1be2c89b69c2b068fc378daa952ba7f163c4a11628f55a4df523b3ef",
            "0x000000000000000000000000dedb01eed7786bfb8633c827d4d05ee5d14fd732",
            "0x0000000000000000000000008029505591a4e95ce2945b62d46e64dc4ddc9dec"
          ],
          "data": "0x000000000000000000000000000000000000000000000000000000000000004e",
          "blockHash": "0x446d6efe91f439c4330c712acc65e9b8aa267720b57424185203329c79e87ef7",
          "blockNumber": "0x6d576e",
          "transactionHash": "0x58c5dfc2ab1520f73a48f656c7d123242bd93ab30a3a73dcdc572a697d56b3ea",
          "transactionIndex": "0xc4",
          "logIndex": "0x40",
          "removed": false
        }
      ],
      "logsBloom": "0x00000000000000000000000000000000000000000000000000000000000000000000000000000040000000000000004000000001000000000000000000200000000000000000000000000008000000000000000040008000000000000000100000000000000000000000000000000000000000000000000000000010000000000000000000000000000000000000000000000000000000000000000000000000020000000000000000000000000000000000000000006000000000000000000000000002000000040000000000000000000000000000000000000000000400000018000000000000000000000000000000000000000000008000000000000000",
      "type": "0x2",
      "transactionHash": "0x58c5dfc2ab1520f73a48f656c7d123242bd93ab30a3a73dcdc572a697d56b3ea",
      "transactionIndex": "0xc4",
      "blockHash": "0x446d6efe91f439c4330c712acc65e9b8aa267720b57424185203329c79e87ef7",
      "blockNumber": "0x6d576e",
      "gasUsed": "0x13c58",
      "effectiveGasPrice": "0xbfb35a18",
      "from": "0x8029505591a4e95ce2945b62d46e64dc4ddc9dec",
      "to": "0xdedb01eed7786bfb8633c827d4d05ee5d14fd732",
      "contractAddress": null
    },
    {
      "status": "0x1",
      "cumulativeGasUsed": "0x73bdb5",
      "logs": [
        {
          "address": "0xd727cf12284ecf6838df2b656ec87e7cd1dde073",
          "topics": [
            "0x8c5be1e5ebec7d5bd14f71427d1e84f3dd0314c0f7b2291e5b200ac8c7c3b925",
            "0x0000000000000000000000008029505591a4e95ce2945b62d46e64dc4ddc9dec",
            "0x000000000000000000000000dedb01eed7786bfb8633c827d4d05ee5d14fd732"
          ],
          "data": "0x0000000000000000000000000000000000000000000000000000000000000013",
          "blockHash": "0x446d6efe91f439c4330c712acc65e9b8aa267720b57424185203329c79e87ef7",
          "blockNumber": "0x6d576e",
          "transactionHash": "0xaff9c4d85ebc217ca39e4f990db4fa8ff59e130f3ebb31f9ed320320fb1dea59",
          "transactionIndex": "0xc5",
          "logIndex": "0x41",
          "removed": false
        }
      ],
      "logsBloom": "0x00000000000000000000000000000000000000000000000000000000000000000000000000000040000000000000000000000001000000000000000000200000000000000000000000000000000000000000000040008000000000000000000000000000000000000000000000000000000000000000000000000000000000000000000000000000000000000000000000000000000000000000000000000000020000000000000000000000000000000000000000006000000000000000000000000000000000000000000000000000000000000000000000000000000400000018000000000000000000000000000000000000000000008000000000000000",
      "type": "0x2",
      "transactionHash": "0xaff9c4d85ebc217ca39e4f990db4fa8ff59e130f3ebb31f9ed320320fb1dea59",
      "transactionIndex": "0xc5",
      "blockHash": "0x446d6efe91f439c4330c712acc65e9b8aa267720b57424185203329c79e87ef7",
      "blockNumber": "0x6d576e",
      "gasUsed": "0xb483",
      "effectiveGasPrice": "0xbfb35a18",
      "from": "0x8029505591a4e95ce2945b62d46e64dc4ddc9dec",
      "to": "0xd727cf12284ecf6838df2b656ec87e7cd1dde073",
      "contractAddress": null
    },
    {
      "status": "0x1",
      "cumulativeGasUsed": "0x74b6a4",
      "logs": [
        {
          "address": "0xd727cf12284ecf6838df2b656ec87e7cd1dde073",
          "topics": [
            "0xddf252ad1be2c89b69c2b068fc378daa952ba7f163c4a11628f55a4df523b3ef",
            "0x0000000000000000000000008029505591a4e95ce2945b62d46e64dc4ddc9dec",
            "0x000000000000000000000000dedb01eed7786bfb8633c827d4d05ee5d14fd732"
          ],
          "data": "0x0000000000000000000000000000000000000000000000000000000000000013",
          "blockHash": "0x446d6efe91f439c4330c712acc65e9b8aa267720b57424185203329c79e87ef7",
          "blockNumber": "0x6d576e",
          "transactionHash": "0xd01e16dbceee3069dfd3e44a54125c24dcee8fb0d291cb27c4d824d30694f5ce",
          "transactionIndex": "0xc6",
          "logIndex": "0x42",
          "removed": false
        },
        {
          "address": "0xd727cf12284ecf6838df2b656ec87e7cd1dde073",
          "topics": [
            "0x8c5be1e5ebec7d5bd14f71427d1e84f3dd0314c0f7b2291e5b200ac8c7c3b925",
            "0x0000000000000000000000008029505591a4e95ce2945b62d46e64dc4ddc9dec",
            "0x000000000000000000000000dedb01eed7786bfb8633c827d4d05ee5d14fd732"
          ],
          "data": "0x0000000000000000000000000000000000000000000000000000000000000000",
          "blockHash": "0x446d6efe91f439c4330c712acc65e9b8aa267720b57424185203329c79e87ef7",
          "blockNumber": "0x6d576e",
          "transactionHash": "0xd01e16dbceee3069dfd3e44a54125c24dcee8fb0d291cb27c4d824d30694f5ce",
          "transactionIndex": "0xc6",
          "logIndex": "0x43",
          "removed": false
        },
        {
          "address": "0x737aa5dc800b102d3ff77cf2400ca512ecfec2ab",
          "topics": [
            "0xddf252ad1be2c89b69c2b068fc378daa952ba7f163c4a11628f55a4df523b3ef",
            "0x000000000000000000000000dedb01eed7786bfb8633c827d4d05ee5d14fd732",
            "0x0000000000000000000000008029505591a4e95ce2945b62d46e64dc4ddc9dec"
          ],
          "data": "0x000000000000000000000000000000000000000000000000000000000000002d",
          "blockHash": "0x446d6efe91f439c4330c712acc65e9b8aa267720b57424185203329c79e87ef7",
          "blockNumber": "0x6d576e",
          "transactionHash": "0xd01e16dbceee3069dfd3e44a54125c24dcee8fb0d291cb27c4d824d30694f5ce",
          "transactionIndex": "0xc6",
          "logIndex": "0x44",
          "removed": false
        }
      ],
      "logsBloom": "0x00000000000000000000000000000000000000000000000000000000000000000000000000000040000000000000004000000001000000000000000000200000000000000000000000000008000000000000000040008000000000000000100000000000000000000000000000000000000000000000000000000010000000000000000000000000000000000000000000000000000000000000000000000000020000000000000000000000000000000000000000006000000000000000000000000002000000040000000000000000000000000000000000000000000400000018000000000000000000000000000000000000000000008000000000000000",
      "type": "0x2",
      "transactionHash": "0xd01e16dbceee3069dfd3e44a54125c24dcee8fb0d291cb27c4d824d30694f5ce",
      "transactionIndex": "0xc6",
      "blockHash": "0x446d6efe91f439c4330c712acc65e9b8aa267720b57424185203329c79e87ef7",
      "blockNumber": "0x6d576e",
      "gasUsed": "0xf8ef",
      "effectiveGasPrice": "0xbfb35a18",
      "from": "0x8029505591a4e95ce2945b62d46e64dc4ddc9dec",
      "to": "0xdedb01eed7786bfb8633c827d4d05ee5d14fd732",
      "contractAddress": null
    },
    {
      "status": "0x1",
      "cumulativeGasUsed": "0x756b27",
      "logs": [
        {
          "address": "0x737aa5dc800b102d3ff77cf2400ca512ecfec2ab",
          "topics": [
            "0x8c5be1e5ebec7d5bd14f71427d1e84f3dd0314c0f7b2291e5b200ac8c7c3b925",
            "0x0000000000000000000000008029505591a4e95ce2945b62d46e64dc4ddc9dec",
            "0x000000000000000000000000dedb01eed7786bfb8633c827d4d05ee5d14fd732"
          ],
          "data": "0x0000000000000000000000000000000000000000000000000000000000000013",
          "blockHash": "0x446d6efe91f439c4330c712acc65e9b8aa267720b57424185203329c79e87ef7",
          "blockNumber": "0x6d576e",
          "transactionHash": "0x38fce15f33a898ac61a63ef65a040eaa55bf280ed4f6b09f5a94da688f2ce8d5",
          "transactionIndex": "0xc7",
          "logIndex": "0x45",
          "removed": false
        }
      ],
      "logsBloom": "0x00000000000000000000000000000000000000000000000000000000000000000000000000000000000000000000004000000000000000000000000000200000000000000000000000000000000000000000000040008000000000000000100000000000000000000000000000000000000000000000000000000000000000000000000000000000000000000000000000000000000000000000000000000000020000000000000000000000000000000000000000006000000000000000000000000000000000040000000000000000000000000000000000000000000400000018000000000000000000000000000000000000000000000000000000000000",
      "type": "0x2",
      "transactionHash": "0x38fce15f33a898ac61a63ef65a040eaa55bf280ed4f6b09f5a94da688f2ce8d5",
      "transactionIndex": "0xc7",
      "blockHash": "0x446d6efe91f439c4330c712acc65e9b8aa267720b57424185203329c79e87ef7",
      "blockNumber": "0x6d576e",
      "gasUsed": "0xb483",
      "effectiveGasPrice": "0xbfb35a18",
      "from": "0x8029505591a4e95ce2945b62d46e64dc4ddc9dec",
      "to": "0x737aa5dc800b102d3ff77cf2400ca512ecfec2ab",
      "contractAddress": null
    },
    {
      "status": "0x1",
      "cumulativeGasUsed": "0x7664b3",
      "logs": [
        {
          "address": "0x737aa5dc800b102d3ff77cf2400ca512ecfec2ab",
          "topics": [
            "0xddf252ad1be2c89b69c2b068fc378daa952ba7f163c4a11628f55a4df523b3ef",
            "0x0000000000000000000000008029505591a4e95ce2945b62d46e64dc4ddc9dec",
            "0x000000000000000000000000dedb01eed7786bfb8633c827d4d05ee5d14fd732"
          ],
          "data": "0x0000000000000000000000000000000000000000000000000000000000000013",
          "blockHash": "0x446d6efe91f439c4330c712acc65e9b8aa267720b57424185203329c79e87ef7",
          "blockNumber": "0x6d576e",
          "transactionHash": "0x6eeb8e98e4ba058dd92bcce46c3eb00df3900e1e67f95f1f804405e4bf30a1af",
          "transactionIndex": "0xc8",
          "logIndex": "0x46",
          "removed": false
        },
        {
          "address": "0x737aa5dc800b102d3ff77cf2400ca512ecfec2ab",
          "topics": [
            "0x8c5be1e5ebec7d5bd14f71427d1e84f3dd0314c0f7b2291e5b200ac8c7c3b925",
            "0x0000000000000000000000008029505591a4e95ce2945b62d46e64dc4ddc9dec",
            "0x000000000000000000000000dedb01eed7786bfb8633c827d4d05ee5d14fd732"
          ],
          "data": "0x0000000000000000000000000000000000000000000000000000000000000000",
          "blockHash": "0x446d6efe91f439c4330c712acc65e9b8aa267720b57424185203329c79e87ef7",
          "blockNumber": "0x6d576e",
          "transactionHash": "0x6eeb8e98e4ba058dd92bcce46c3eb00df3900e1e67f95f1f804405e4bf30a1af",
          "transactionIndex": "0xc8",
          "logIndex": "0x47",
          "removed": false
        },
        {
          "address": "0xd727cf12284ecf6838df2b656ec87e7cd1dde073",
          "topics": [
            "0xddf252ad1be2c89b69c2b068fc378daa952ba7f163c4a11628f55a4df523b3ef",
            "0x000000000000000000000000dedb01eed7786bfb8633c827d4d05ee5d14fd732",
            "0x0000000000000000000000008029505591a4e95ce2945b62d46e64dc4ddc9dec"
          ],
          "data": "0x000000000000000000000000000000000000000000000000000000000000001e",
          "blockHash": "0x446d6efe91f439c4330c712acc65e9b8aa267720b57424185203329c79e87ef7",
          "blockNumber": "0x6d576e",
          "transactionHash": "0x6eeb8e98e4ba058dd92bcce46c3eb00df3900e1e67f95f1f804405e4bf30a1af",
          "transactionIndex": "0xc8",
          "logIndex": "0x48",
          "removed": false
        }
      ],
      "logsBloom": "0x00000000000000000000000000000000000000000000000000000000000000000000000000000040000000000000004000000001000000000000000000200000000000000000000000000008000000000000000040008000000000000000100000000000000000000000000000000000000000000000000000000010000000000000000000000000000000000000000000000000000000000000000000000000020000000000000000000000000000000000000000006000000000000000000000000002000000040000000000000000000000000000000000000000000400000018000000000000000000000000000000000000000000008000000000000000",
      "type": "0x2",
      "transactionHash": "0x6eeb8e98e4ba058dd92bcce46c3eb00df3900e1e67f95f1f804405e4bf30a1af",
      "transactionIndex": "0xc8",
      "blockHash": "0x446d6efe91f439c4330c712acc65e9b8aa267720b57424185203329c79e87ef7",
      "blockNumber": "0x6d576e",
      "gasUsed": "0xf98c",
      "effectiveGasPrice": "0xbfb35a18",
      "from": "0x8029505591a4e95ce2945b62d46e64dc4ddc9dec",
      "to": "0xdedb01eed7786bfb8633c827d4d05ee5d14fd732",
      "contractAddress": null
    },
    {
      "status": "0x1",
      "cumulativeGasUsed": "0x7772de",
      "logs": [
        {
          "address": "0xd727cf12284ecf6838df2b656ec87e7cd1dde073",
          "topics": [
            "0x8c5be1e5ebec7d5bd14f71427d1e84f3dd0314c0f7b2291e5b200ac8c7c3b925",
            "0x0000000000000000000000008029505591a4e95ce2945b62d46e64dc4ddc9dec",
            "0x000000000000000000000000dedb01eed7786bfb8633c827d4d05ee5d14fd732"
          ],
          "data": "0x000000000000000000000000000000000000000000000000000000000000000b",
          "blockHash": "0x446d6efe91f439c4330c712acc65e9b8aa267720b57424185203329c79e87ef7",
          "blockNumber": "0x6d576e",
          "transactionHash": "0x6ece670a940a0a5223e6b1d54a9aa643f0a36a4cbdd2a0f111064d54b969363f",
          "transactionIndex": "0xca",
          "logIndex": "0x49",
          "removed": false
        }
      ],
      "logsBloom": "0x00000000000000000000000000000000000000000000000000000000000000000000000000000040000000000000000000000001000000000000000000200000000000000000000000000000000000000000000040008000000000000000000000000000000000000000000000000000000000000000000000000000000000000000000000000000000000000000000000000000000000000000000000000000020000000000000000000000000000000000000000006000000000000000000000000000000000000000000000000000000000000000000000000000000400000018000000000000000000000000000000000000000000008000000000000000",
      "type": "0x2",
      "transactionHash": "0x6ece670a940a0a5223e6b1d54a9aa643f0a36a4cbdd2a0f111064d54b969363f",
      "transactionIndex": "0xca",
      "blockHash": "0x446d6efe91f439c4330c712acc65e9b8aa267720b57424185203329c79e87ef7",
      "blockNumber": "0x6d576e",
      "gasUsed": "0xb483",
      "effectiveGasPrice": "0xbfb35a18",
      "from": "0x8029505591a4e95ce2945b62d46e64dc4ddc9dec",
      "to": "0xd727cf12284ecf6838df2b656ec87e7cd1dde073",
      "contractAddress": null
    },
    {
      "status": "0x1",
      "cumulativeGasUsed": "0x786bcd",
      "logs": [
        {
          "address": "0xd727cf12284ecf6838df2b656ec87e7cd1dde073",
          "topics": [
            "0xddf252ad1be2c89b69c2b068fc378daa952ba7f163c4a11628f55a4df523b3ef",
            "0x0000000000000000000000008029505591a4e95ce2945b62d46e64dc4ddc9dec",
            "0x000000000000000000000000dedb01eed7786bfb8633c827d4d05ee5d14fd732"
          ],
          "data": "0x000000000000000000000000000000000000000000000000000000000000000b",
          "blockHash": "0x446d6efe91f439c4330c712acc65e9b8aa267720b57424185203329c79e87ef7",
          "blockNumber": "0x6d576e",
          "transactionHash": "0x4a2b95348c552d838a11ff98b81a0208f01e44df4d2ecd9b25b75b6a045cd90f",
          "transactionIndex": "0xcb",
          "logIndex": "0x4a",
          "removed": false
        },
        {
          "address": "0xd727cf12284ecf6838df2b656ec87e7cd1dde073",
          "topics": [
            "0x8c5be1e5ebec7d5bd14f71427d1e84f3dd0314c0f7b2291e5b200ac8c7c3b925",
            "0x0000000000000000000000008029505591a4e95ce2945b62d46e64dc4ddc9dec",
            "0x000000000000000000000000dedb01eed7786bfb8633c827d4d05ee5d14fd732"
          ],
          "data": "0x0000000000000000000000000000000000000000000000000000000000000000",
          "blockHash": "0x446d6efe91f439c4330c712acc65e9b8aa267720b57424185203329c79e87ef7",
          "blockNumber": "0x6d576e",
          "transactionHash": "0x4a2b95348c552d838a11ff98b81a0208f01e44df4d2ecd9b25b75b6a045cd90f",
          "transactionIndex": "0xcb",
          "logIndex": "0x4b",
          "removed": false
        },
        {
          "address": "0x737aa5dc800b102d3ff77cf2400ca512ecfec2ab",
          "topics": [
            "0xddf252ad1be2c89b69c2b068fc378daa952ba7f163c4a11628f55a4df523b3ef",
            "0x000000000000000000000000dedb01eed7786bfb8633c827d4d05ee5d14fd732",
            "0x0000000000000000000000008029505591a4e95ce2945b62d46e64dc4ddc9dec"
          ],
          "data": "0x000000000000000000000000000000000000000000000000000000000000001a",
          "blockHash": "0x446d6efe91f439c4330c712acc65e9b8aa267720b57424185203329c79e87ef7",
          "blockNumber": "0x6d576e",
          "transactionHash": "0x4a2b95348c552d838a11ff98b81a0208f01e44df4d2ecd9b25b75b6a045cd90f",
          "transactionIndex": "0xcb",
          "logIndex": "0x4c",
          "removed": false
        }
      ],
      "logsBloom": "0x00000000000000000000000000000000000000000000000000000000000000000000000000000040000000000000004000000001000000000000000000200000000000000000000000000008000000000000000040008000000000000000100000000000000000000000000000000000000000000000000000000010000000000000000000000000000000000000000000000000000000000000000000000000020000000000000000000000000000000000000000006000000000000000000000000002000000040000000000000000000000000000000000000000000400000018000000000000000000000000000000000000000000008000000000000000",
      "type": "0x2",
      "transactionHash": "0x4a2b95348c552d838a11ff98b81a0208f01e44df4d2ecd9b25b75b6a045cd90f",
      "transactionIndex": "0xcb",
      "blockHash": "0x446d6efe91f439c4330c712acc65e9b8aa267720b57424185203329c79e87ef7",
      "blockNumber": "0x6d576e",
      "gasUsed": "0xf8ef",
      "effectiveGasPrice": "0xbfb35a18",
      "from": "0x8029505591a4e95ce2945b62d46e64dc4ddc9dec",
      "to": "0xdedb01eed7786bfb8633c827d4d05ee5d14fd732",
      "contractAddress": null
    },
    {
      "status": "0x1",
      "cumulativeGasUsed": "0x792050",
      "logs": [
        {
          "address": "0x737aa5dc800b102d3ff77cf2400ca512ecfec2ab",
          "topics": [
            "0x8c5be1e5ebec7d5bd14f71427d1e84f3dd0314c0f7b2291e5b200ac8c7c3b925",
            "0x0000000000000000000000008029505591a4e95ce2945b62d46e64dc4ddc9dec",
            "0x000000000000000000000000dedb01eed7786bfb8633c827d4d05ee5d14fd732"
          ],
          "data": "0x0000000000000000000000000000000000000000000000000000000000000015",
          "blockHash": "0x446d6efe91f439c4330c712acc65e9b8aa267720b57424185203329c79e87ef7",
          "blockNumber": "0x6d576e",
          "transactionHash": "0xe511f9dfd3b3bd7143261f2eb76f2997945ee140342860a9bef91d797fdf0d90",
          "transactionIndex": "0xcc",
          "logIndex": "0x4d",
          "removed": false
        }
      ],
      "logsBloom": "0x00000000000000000000000000000000000000000000000000000000000000000000000000000000000000000000004000000000000000000000000000200000000000000000000000000000000000000000000040008000000000000000100000000000000000000000000000000000000000000000000000000000000000000000000000000000000000000000000000000000000000000000000000000000020000000000000000000000000000000000000000006000000000000000000000000000000000040000000000000000000000000000000000000000000400000018000000000000000000000000000000000000000000000000000000000000",
      "type": "0x2",
      "transactionHash": "0xe511f9dfd3b3bd7143261f2eb76f2997945ee140342860a9bef91d797fdf0d90",
      "transactionIndex": "0xcc",
      "blockHash": "0x446d6efe91f439c4330c712acc65e9b8aa267720b57424185203329c79e87ef7",
      "blockNumber": "0x6d576e",
      "gasUsed": "0xb483",
      "effectiveGasPrice": "0xbfb35a18",
      "from": "0x8029505591a4e95ce2945b62d46e64dc4ddc9dec",
      "to": "0x737aa5dc800b102d3ff77cf2400ca512ecfec2ab",
      "contractAddress": null
    },
    {
      "status": "0x1",
      "cumulativeGasUsed": "0x7e0bba",
      "logs": [
        {
          "address": "0x737aa5dc800b102d3ff77cf2400ca512ecfec2ab",
          "topics": [
            "0xddf252ad1be2c89b69c2b068fc378daa952ba7f163c4a11628f55a4df523b3ef",
            "0x0000000000000000000000008029505591a4e95ce2945b62d46e64dc4ddc9dec",
            "0x000000000000000000000000dedb01eed7786bfb8633c827d4d05ee5d14fd732"
          ],
          "data": "0x0000000000000000000000000000000000000000000000000000000000000015",
          "blockHash": "0x446d6efe91f439c4330c712acc65e9b8aa267720b57424185203329c79e87ef7",
          "blockNumber": "0x6d576e",
          "transactionHash": "0x9c99fc28d3697c020bb9f4646fe5e369aa69336f994b4ace90fb84631c5cb769",
          "transactionIndex": "0xce",
          "logIndex": "0x53",
          "removed": false
        },
        {
          "address": "0x737aa5dc800b102d3ff77cf2400ca512ecfec2ab",
          "topics": [
            "0x8c5be1e5ebec7d5bd14f71427d1e84f3dd0314c0f7b2291e5b200ac8c7c3b925",
            "0x0000000000000000000000008029505591a4e95ce2945b62d46e64dc4ddc9dec",
            "0x000000000000000000000000dedb01eed7786bfb8633c827d4d05ee5d14fd732"
          ],
          "data": "0x0000000000000000000000000000000000000000000000000000000000000000",
          "blockHash": "0x446d6efe91f439c4330c712acc65e9b8aa267720b57424185203329c79e87ef7",
          "blockNumber": "0x6d576e",
          "transactionHash": "0x9c99fc28d3697c020bb9f4646fe5e369aa69336f994b4ace90fb84631c5cb769",
          "transactionIndex": "0xce",
          "logIndex": "0x54",
          "removed": false
        },
        {
          "address": "0xd727cf12284ecf6838df2b656ec87e7cd1dde073",
          "topics": [
            "0xddf252ad1be2c89b69c2b068fc378daa952ba7f163c4a11628f55a4df523b3ef",
            "0x000000000000000000000000dedb01eed7786bfb8633c827d4d05ee5d14fd732",
            "0x0000000000000000000000008029505591a4e95ce2945b62d46e64dc4ddc9dec"
          ],
          "data": "0x000000000000000000000000000000000000000000000000000000000000001a",
          "blockHash": "0x446d6efe91f439c4330c712acc65e9b8aa267720b57424185203329c79e87ef7",
          "blockNumber": "0x6d576e",
          "transactionHash": "0x9c99fc28d3697c020bb9f4646fe5e369aa69336f994b4ace90fb84631c5cb769",
          "transactionIndex": "0xce",
          "logIndex": "0x55",
          "removed": false
        }
      ],
      "logsBloom": "0x00000000000000000000000000000000000000000000000000000000000000000000000000000040000000000000004000000001000000000000000000200000000000000000000000000008000000000000000040008000000000000000100000000000000000000000000000000000000000000000000000000010000000000000000000000000000000000000000000000000000000000000000000000000020000000000000000000000000000000000000000006000000000000000000000000002000000040000000000000000000000000000000000000000000400000018000000000000000000000000000000000000000000008000000000000000",
      "type": "0x2",
      "transactionHash": "0x9c99fc28d3697c020bb9f4646fe5e369aa69336f994b4ace90fb84631c5cb769",
      "transactionIndex": "0xce",
      "blockHash": "0x446d6efe91f439c4330c712acc65e9b8aa267720b57424185203329c79e87ef7",
      "blockNumber": "0x6d576e",
      "gasUsed": "0xf98c",
      "effectiveGasPrice": "0xbfb35a18",
      "from": "0x8029505591a4e95ce2945b62d46e64dc4ddc9dec",
      "to": "0xdedb01eed7786bfb8633c827d4d05ee5d14fd732",
      "contractAddress": null
    },
    {
      "status": "0x1",
      "cumulativeGasUsed": "0x7ec03d",
      "logs": [
        {
          "address": "0xd727cf12284ecf6838df2b656ec87e7cd1dde073",
          "topics": [
            "0x8c5be1e5ebec7d5bd14f71427d1e84f3dd0314c0f7b2291e5b200ac8c7c3b925",
            "0x0000000000000000000000008029505591a4e95ce2945b62d46e64dc4ddc9dec",
            "0x000000000000000000000000dedb01eed7786bfb8633c827d4d05ee5d14fd732"
          ],
          "data": "0x0000000000000000000000000000000000000000000000000000000000000006",
          "blockHash": "0x446d6efe91f439c4330c712acc65e9b8aa267720b57424185203329c79e87ef7",
          "blockNumber": "0x6d576e",
          "transactionHash": "0xcd76a5d9b5cd90015d1a0f643c642fe5a399444a4041af0a5b7a9d927a00d485",
          "transactionIndex": "0xcf",
          "logIndex": "0x56",
          "removed": false
        }
      ],
      "logsBloom": "0x00000000000000000000000000000000000000000000000000000000000000000000000000000040000000000000000000000001000000000000000000200000000000000000000000000000000000000000000040008000000000000000000000000000000000000000000000000000000000000000000000000000000000000000000000000000000000000000000000000000000000000000000000000000020000000000000000000000000000000000000000006000000000000000000000000000000000000000000000000000000000000000000000000000000400000018000000000000000000000000000000000000000000008000000000000000",
      "type": "0x2",
      "transactionHash": "0xcd76a5d9b5cd90015d1a0f643c642fe5a399444a4041af0a5b7a9d927a00d485",
      "transactionIndex": "0xcf",
      "blockHash": "0x446d6efe91f439c4330c712acc65e9b8aa267720b57424185203329c79e87ef7",
      "blockNumber": "0x6d576e",
      "gasUsed": "0xb483",
      "effectiveGasPrice": "0xbfb35a18",
      "from": "0x8029505591a4e95ce2945b62d46e64dc4ddc9dec",
      "to": "0xd727cf12284ecf6838df2b656ec87e7cd1dde073",
      "contractAddress": null
    },
    {
      "status": "0x1",
      "cumulativeGasUsed": "0x7fa66c",
      "logs": [
        {
          "address": "0xd727cf12284ecf6838df2b656ec87e7cd1dde073",
          "topics": [
            "0xddf252ad1be2c89b69c2b068fc378daa952ba7f163c4a11628f55a4df523b3ef",
            "0x0000000000000000000000008029505591a4e95ce2945b62d46e64dc4ddc9dec",
            "0x000000000000000000000000dedb01eed7786bfb8633c827d4d05ee5d14fd732"
          ],
          "data": "0x0000000000000000000000000000000000000000000000000000000000000006",
          "blockHash": "0x446d6efe91f439c4330c712acc65e9b8aa267720b57424185203329c79e87ef7",
          "blockNumber": "0x6d576e",
          "transactionHash": "0xd0934fc4e927d746f681fe31a088708f93543632c3ae0630c1391cf0a10d7178",
          "transactionIndex": "0xd0",
          "logIndex": "0x57",
          "removed": false
        },
        {
          "address": "0xd727cf12284ecf6838df2b656ec87e7cd1dde073",
          "topics": [
            "0x8c5be1e5ebec7d5bd14f71427d1e84f3dd0314c0f7b2291e5b200ac8c7c3b925",
            "0x0000000000000000000000008029505591a4e95ce2945b62d46e64dc4ddc9dec",
            "0x000000000000000000000000dedb01eed7786bfb8633c827d4d05ee5d14fd732"
          ],
          "data": "0x0000000000000000000000000000000000000000000000000000000000000000",
          "blockHash": "0x446d6efe91f439c4330c712acc65e9b8aa267720b57424185203329c79e87ef7",
          "blockNumber": "0x6d576e",
          "transactionHash": "0xd0934fc4e927d746f681fe31a088708f93543632c3ae0630c1391cf0a10d7178",
          "transactionIndex": "0xd0",
          "logIndex": "0x58",
          "removed": false
        },
        {
          "address": "0x737aa5dc800b102d3ff77cf2400ca512ecfec2ab",
          "topics": [
            "0xddf252ad1be2c89b69c2b068fc378daa952ba7f163c4a11628f55a4df523b3ef",
            "0x000000000000000000000000dedb01eed7786bfb8633c827d4d05ee5d14fd732",
            "0x0000000000000000000000008029505591a4e95ce2945b62d46e64dc4ddc9dec"
          ],
          "data": "0x000000000000000000000000000000000000000000000000000000000000002e",
          "blockHash": "0x446d6efe91f439c4330c712acc65e9b8aa267720b57424185203329c79e87ef7",
          "blockNumber": "0x6d576e",
          "transactionHash": "0xd0934fc4e927d746f681fe31a088708f93543632c3ae0630c1391cf0a10d7178",
          "transactionIndex": "0xd0",
          "logIndex": "0x59",
          "removed": false
        }
      ],
      "logsBloom": "0x00000000000000000000000000000000000000000000000000000000000000000000000000000040000000000000004000000001000000000000000000200000000000000000000000000008000000000000000040008000000000000000100000000000000000000000000000000000000000000000000000000010000000000000000000000000000000000000000000000000000000000000000000000000020000000000000000000000000000000000000000006000000000000000000000000002000000040000000000000000000000000000000000000000000400000018000000000000000000000000000000000000000000008000000000000000",
      "type": "0x2",
      "transactionHash": "0xd0934fc4e927d746f681fe31a088708f93543632c3ae0630c1391cf0a10d7178",
      "transactionIndex": "0xd0",
      "blockHash": "0x446d6efe91f439c4330c712acc65e9b8aa267720b57424185203329c79e87ef7",
      "blockNumber": "0x6d576e",
      "gasUsed": "0xe62f",
      "effectiveGasPrice": "0xbfb35a18",
      "from": "0x8029505591a4e95ce2945b62d46e64dc4ddc9dec",
      "to": "0xdedb01eed7786bfb8633c827d4d05ee5d14fd732",
      "contractAddress": null
    }
  ],
  "libraries": [],
  "pending": [],
  "returns": {},
  "timestamp": 1732744166,
  "chain": 11155111,
  "commit": "18e3c44"
}