{
  "transactions": [
    {
      "hash": "0xa51ea777d64458ad785cd196fe118cc2ba926edd53372b017d93a25d1960910a",
      "transactionType": "CALL",
      "contractName": null,
      "contractAddress": "0x0cf69a44c158fc145a39a1a578074a4831493742",
      "function": "follow_the_link(address)",
      "arguments": [
        "0x9DeA6fC5b27b3dE4EDdBfcAcd8e4cC02E0910C26"
      ],
      "transaction": {
        "from": "0x8029505591a4e95ce2945b62d46e64dc4ddc9dec",
        "to": "0x0cf69a44c158fc145a39a1a578074a4831493742",
        "gas": "0x1e238",
        "value": "0x0",
        "input": "0x2cbd24060000000000000000000000009dea6fc5b27b3de4eddbfcacd8e4cc02e0910c26",
        "nonce": "0xe",
        "chainId": "0xaa36a7"
      },
      "additionalContracts": [],
      "isFixedGasLimit": false
    },
    {
      "hash": "0x6a6d8f2eb55b7c559475879979a75067320397c72f1f46f8519ba5e73dbb7c5b",
      "transactionType": "CALL",
      "contractName": null,
      "contractAddress": "0x0cf69a44c158fc145a39a1a578074a4831493742",
      "function": "follow_the_link(address)",
      "arguments": [
        "0x9DeA6fC5b27b3dE4EDdBfcAcd8e4cC02E0910C26"
      ],
      "transaction": {
        "from": "0x8029505591a4e95ce2945b62d46e64dc4ddc9dec",
        "to": "0x0cf69a44c158fc145a39a1a578074a4831493742",
        "gas": "0x12843",
        "value": "0x0",
        "input": "0x2cbd24060000000000000000000000009dea6fc5b27b3de4eddbfcacd8e4cc02e0910c26",
        "nonce": "0xf",
        "chainId": "0xaa36a7"
      },
      "additionalContracts": [],
      "isFixedGasLimit": false
    },
    {
      "hash": "0x327b000dba3cf19758ced7ac998ac27cd3fd6f9b7418ec8c759406c56a0bdc3d",
      "transactionType": "CALL",
      "contractName": null,
      "contractAddress": "0x0cf69a44c158fc145a39a1a578074a4831493742",
      "function": "follow_the_link(address)",
      "arguments": [
        "0x9DeA6fC5b27b3dE4EDdBfcAcd8e4cC02E0910C26"
      ],
      "transaction": {
        "from": "0x8029505591a4e95ce2945b62d46e64dc4ddc9dec",
        "to": "0x0cf69a44c158fc145a39a1a578074a4831493742",
        "gas": "0x135f1",
        "value": "0x0",
        "input": "0x2cbd24060000000000000000000000009dea6fc5b27b3de4eddbfcacd8e4cc02e0910c26",
        "nonce": "0x10",
        "chainId": "0xaa36a7"
      },
      "additionalContracts": [],
      "isFixedGasLimit": false
    },
    {
      "hash": "0x0a613b585f909d4a30c5169ec6e80b4ea450d9556da680247ef69f8497b64c90",
      "transactionType": "CALL",
      "contractName": null,
      "contractAddress": "0x0cf69a44c158fc145a39a1a578074a4831493742",
      "function": "follow_the_link(address)",
      "arguments": [
        "0x9DeA6fC5b27b3dE4EDdBfcAcd8e4cC02E0910C26"
      ],
      "transaction": {
        "from": "0x8029505591a4e95ce2945b62d46e64dc4ddc9dec",
        "to": "0x0cf69a44c158fc145a39a1a578074a4831493742",
        "gas": "0x1439e",
        "value": "0x0",
        "input": "0x2cbd24060000000000000000000000009dea6fc5b27b3de4eddbfcacd8e4cc02e0910c26",
        "nonce": "0x11",
        "chainId": "0xaa36a7"
      },
      "additionalContracts": [],
      "isFixedGasLimit": false
    },
    {
      "hash": "0x7aba787eb75d5bb80c593c109843a72eac8a508fcf1f90c572ffa4873d7e9fe3",
      "transactionType": "CALL",
      "contractName": null,
      "contractAddress": "0x0cf69a44c158fc145a39a1a578074a4831493742",
      "function": "follow_the_link(address)",
      "arguments": [
        "0x9DeA6fC5b27b3dE4EDdBfcAcd8e4cC02E0910C26"
      ],
      "transaction": {
        "from": "0x8029505591a4e95ce2945b62d46e64dc4ddc9dec",
        "to": "0x0cf69a44c158fc145a39a1a578074a4831493742",
        "gas": "0x16523",
        "value": "0x0",
        "input": "0x2cbd24060000000000000000000000009dea6fc5b27b3de4eddbfcacd8e4cc02e0910c26",
        "nonce": "0x12",
        "chainId": "0xaa36a7"
      },
      "additionalContracts": [],
      "isFixedGasLimit": false
    },
    {
      "hash": "0xa61378bc8f280a24b98118497db52e46151f757fedadb22eeb078c8c6976ca9d",
      "transactionType": "CALL",
      "contractName": null,
      "contractAddress": "0x0cf69a44c158fc145a39a1a578074a4831493742",
      "function": "follow_the_link(address)",
      "arguments": [
        "0x9DeA6fC5b27b3dE4EDdBfcAcd8e4cC02E0910C26"
      ],
      "transaction": {
        "from": "0x8029505591a4e95ce2945b62d46e64dc4ddc9dec",
        "to": "0x0cf69a44c158fc145a39a1a578074a4831493742",
        "gas": "0x1739f",
        "value": "0x0",
        "input": "0x2cbd24060000000000000000000000009dea6fc5b27b3de4eddbfcacd8e4cc02e0910c26",
        "nonce": "0x13",
        "chainId": "0xaa36a7"
      },
      "additionalContracts": [],
      "isFixedGasLimit": false
    },
    {
      "hash": "0x9223135927dd4ea30b862c5ba4acc02ff15edf410705b0ecd30517e73ca3e77b",
      "transactionType": "CALL",
      "contractName": null,
      "contractAddress": "0x0cf69a44c158fc145a39a1a578074a4831493742",
      "function": "follow_the_link(address)",
      "arguments": [
        "0x9DeA6fC5b27b3dE4EDdBfcAcd8e4cC02E0910C26"
      ],
      "transaction": {
        "from": "0x8029505591a4e95ce2945b62d46e64dc4ddc9dec",
        "to": "0x0cf69a44c158fc145a39a1a578074a4831493742",
        "gas": "0x1821a",
        "value": "0x0",
        "input": "0x2cbd24060000000000000000000000009dea6fc5b27b3de4eddbfcacd8e4cc02e0910c26",
        "nonce": "0x14",
        "chainId": "0xaa36a7"
      },
      "additionalContracts": [],
      "isFixedGasLimit": false
    },
    {
      "hash": "0xfb828a4495b794168d0d71c140528ff36a09c43e9fe6b8e3576fbc75512bc807",
      "transactionType": "CALL",
      "contractName": null,
      "contractAddress": "0x0cf69a44c158fc145a39a1a578074a4831493742",
      "function": "follow_the_link(address)",
      "arguments": [
        "0x9DeA6fC5b27b3dE4EDdBfcAcd8e4cC02E0910C26"
      ],
      "transaction": {
        "from": "0x8029505591a4e95ce2945b62d46e64dc4ddc9dec",
        "to": "0x0cf69a44c158fc145a39a1a578074a4831493742",
        "gas": "0x17a54",
        "value": "0x0",
        "input": "0x2cbd24060000000000000000000000009dea6fc5b27b3de4eddbfcacd8e4cc02e0910c26",
        "nonce": "0x15",
        "chainId": "0xaa36a7"
      },
      "additionalContracts": [],
      "isFixedGasLimit": false
    },
    {
      "hash": "0x034d6a73e34ade8a611d7e9c33d3069e9e747e58d3f398193ea738ac0f8b060f",
      "transactionType": "CALL",
      "contractName": null,
      "contractAddress": "0x0cf69a44c158fc145a39a1a578074a4831493742",
      "function": "follow_the_link(address)",
      "arguments": [
        "0x9DeA6fC5b27b3dE4EDdBfcAcd8e4cC02E0910C26"
      ],
      "transaction": {
        "from": "0x8029505591a4e95ce2945b62d46e64dc4ddc9dec",
        "to": "0x0cf69a44c158fc145a39a1a578074a4831493742",
        "gas": "0x18801",
        "value": "0x0",
        "input": "0x2cbd24060000000000000000000000009dea6fc5b27b3de4eddbfcacd8e4cc02e0910c26",
        "nonce": "0x16",
        "chainId": "0xaa36a7"
      },
      "additionalContracts": [],
      "isFixedGasLimit": false
    },
    {
      "hash": "0x17b23538e0f2fdbb23057ae0b86de037bf59672bcd042f45483b603b99198daa",
      "transactionType": "CALL",
      "contractName": null,
      "contractAddress": "0x0cf69a44c158fc145a39a1a578074a4831493742",
      "function": "follow_the_link(address)",
      "arguments": [
        "0x9DeA6fC5b27b3dE4EDdBfcAcd8e4cC02E0910C26"
      ],
      "transaction": {
        "from": "0x8029505591a4e95ce2945b62d46e64dc4ddc9dec",
        "to": "0x0cf69a44c158fc145a39a1a578074a4831493742",
        "gas": "0x195af",
        "value": "0x0",
        "input": "0x2cbd24060000000000000000000000009dea6fc5b27b3de4eddbfcacd8e4cc02e0910c26",
        "nonce": "0x17",
        "chainId": "0xaa36a7"
      },
      "additionalContracts": [],
      "isFixedGasLimit": false
    }
  ],
  "receipts": [
    {
      "status": "0x1",
      "cumulativeGasUsed": "0x8c1046",
      "logs": [],
      "logsBloom": "0x00000000000000000000000000000000000000000000000000000000000000000000000000000000000000000000000000000000000000000000000000000000000000000000000000000000000000000000000000000000000000000000000000000000000000000000000000000000000000000000000000000000000000000000000000000000000000000000000000000000000000000000000000000000000000000000000000000000000000000000000000000000000000000000000000000000000000000000000000000000000000000000000000000000000000000000000000000000000000000000000000000000000000000000000000000000",
      "type": "0x2",
      "transactionHash": "0xa51ea777d64458ad785cd196fe118cc2ba926edd53372b017d93a25d1960910a",
      "transactionIndex": "0x20",
      "blockHash": "0x0c4be56033d9f631d4b5e8c082d79f697fb45eaf0ffdcb45eb721dba15a62cb8",
      "blockNumber": "0x6cd72f",
      "gasUsed": "0x15d1f",
      "effectiveGasPrice": "0x625ede0c",
      "from": "0x8029505591a4e95ce2945b62d46e64dc4ddc9dec",
      "to": "0x0cf69a44c158fc145a39a1a578074a4831493742",
      "contractAddress": null
    },
    {
      "status": "0x1",
      "cumulativeGasUsed": "0x8ce6c4",
      "logs": [],
      "logsBloom": "0x00000000000000000000000000000000000000000000000000000000000000000000000000000000000000000000000000000000000000000000000000000000000000000000000000000000000000000000000000000000000000000000000000000000000000000000000000000000000000000000000000000000000000000000000000000000000000000000000000000000000000000000000000000000000000000000000000000000000000000000000000000000000000000000000000000000000000000000000000000000000000000000000000000000000000000000000000000000000000000000000000000000000000000000000000000000",
      "type": "0x2",
      "transactionHash": "0x6a6d8f2eb55b7c559475879979a75067320397c72f1f46f8519ba5e73dbb7c5b",
      "transactionIndex": "0x21",
      "blockHash": "0x0c4be56033d9f631d4b5e8c082d79f697fb45eaf0ffdcb45eb721dba15a62cb8",
      "blockNumber": "0x6cd72f",
      "gasUsed": "0xd67e",
      "effectiveGasPrice": "0x625ede0c",
      "from": "0x8029505591a4e95ce2945b62d46e64dc4ddc9dec",
      "to": "0x0cf69a44c158fc145a39a1a578074a4831493742",
      "contractAddress": null
    },
    {
      "status": "0x1",
      "cumulativeGasUsed": "0x8dc729",
      "logs": [],
      "logsBloom": "0x00000000000000000000000000000000000000000000000000000000000000000000000000000000000000000000000000000000000000000000000000000000000000000000000000000000000000000000000000000000000000000000000000000000000000000000000000000000000000000000000000000000000000000000000000000000000000000000000000000000000000000000000000000000000000000000000000000000000000000000000000000000000000000000000000000000000000000000000000000000000000000000000000000000000000000000000000000000000000000000000000000000000000000000000000000000",
      "type": "0x2",
      "transactionHash": "0x327b000dba3cf19758ced7ac998ac27cd3fd6f9b7418ec8c759406c56a0bdc3d",
      "transactionIndex": "0x22",
      "blockHash": "0x0c4be56033d9f631d4b5e8c082d79f697fb45eaf0ffdcb45eb721dba15a62cb8",
      "blockNumber": "0x6cd72f",
      "gasUsed": "0xe065",
      "effectiveGasPrice": "0x625ede0c",
      "from": "0x8029505591a4e95ce2945b62d46e64dc4ddc9dec",
      "to": "0x0cf69a44c158fc145a39a1a578074a4831493742",
      "contractAddress": null
    },
    {
      "status": "0x1",
      "cumulativeGasUsed": "0x8eb175",
      "logs": [],
      "logsBloom": "0x00000000000000000000000000000000000000000000000000000000000000000000000000000000000000000000000000000000000000000000000000000000000000000000000000000000000000000000000000000000000000000000000000000000000000000000000000000000000000000000000000000000000000000000000000000000000000000000000000000000000000000000000000000000000000000000000000000000000000000000000000000000000000000000000000000000000000000000000000000000000000000000000000000000000000000000000000000000000000000000000000000000000000000000000000000000",
      "type": "0x2",
      "transactionHash": "0x0a613b585f909d4a30c5169ec6e80b4ea450d9556da680247ef69f8497b64c90",
      "transactionIndex": "0x23",
      "blockHash": "0x0c4be56033d9f631d4b5e8c082d79f697fb45eaf0ffdcb45eb721dba15a62cb8",
      "blockNumber": "0x6cd72f",
      "gasUsed": "0xea4c",
      "effectiveGasPrice": "0x625ede0c",
      "from": "0x8029505591a4e95ce2945b62d46e64dc4ddc9dec",
      "to": "0x0cf69a44c158fc145a39a1a578074a4831493742",
      "contractAddress": null
    },
    {
      "status": "0x1",
      "cumulativeGasUsed": "0x8fa5a8",
      "logs": [],
      "logsBloom": "0x00000000000000000000000000000000000000000000000000000000000000000000000000000000000000000000000000000000000000000000000000000000000000000000000000000000000000000000000000000000000000000000000000000000000000000000000000000000000000000000000000000000000000000000000000000000000000000000000000000000000000000000000000000000000000000000000000000000000000000000000000000000000000000000000000000000000000000000000000000000000000000000000000000000000000000000000000000000000000000000000000000000000000000000000000000000",
      "type": "0x2",
      "transactionHash": "0x7aba787eb75d5bb80c593c109843a72eac8a508fcf1f90c572ffa4873d7e9fe3",
      "transactionIndex": "0x24",
      "blockHash": "0x0c4be56033d9f631d4b5e8c082d79f697fb45eaf0ffdcb45eb721dba15a62cb8",
      "blockNumber": "0x6cd72f",
      "gasUsed": "0xf433",
      "effectiveGasPrice": "0x625ede0c",
      "from": "0x8029505591a4e95ce2945b62d46e64dc4ddc9dec",
      "to": "0x0cf69a44c158fc145a39a1a578074a4831493742",
      "contractAddress": null
    },
    {
      "status": "0x1",
      "cumulativeGasUsed": "0x90a3c2",
      "logs": [],
      "logsBloom": "0x00000000000000000000000000000000000000000000000000000000000000000000000000000000000000000000000000000000000000000000000000000000000000000000000000000000000000000000000000000000000000000000000000000000000000000000000000000000000000000000000000000000000000000000000000000000000000000000000000000000000000000000000000000000000000000000000000000000000000000000000000000000000000000000000000000000000000000000000000000000000000000000000000000000000000000000000000000000000000000000000000000000000000000000000000000000",
      "type": "0x2",
      "transactionHash": "0xa61378bc8f280a24b98118497db52e46151f757fedadb22eeb078c8c6976ca9d",
      "transactionIndex": "0x25",
      "blockHash": "0x0c4be56033d9f631d4b5e8c082d79f697fb45eaf0ffdcb45eb721dba15a62cb8",
      "blockNumber": "0x6cd72f",
      "gasUsed": "0xfe1a",
      "effectiveGasPrice": "0x625ede0c",
      "from": "0x8029505591a4e95ce2945b62d46e64dc4ddc9dec",
      "to": "0x0cf69a44c158fc145a39a1a578074a4831493742",
      "contractAddress": null
    },
    {
      "status": "0x1",
      "cumulativeGasUsed": "0x91abc3",
      "logs": [],
      "logsBloom": "0x00000000000000000000000000000000000000000000000000000000000000000000000000000000000000000000000000000000000000000000000000000000000000000000000000000000000000000000000000000000000000000000000000000000000000000000000000000000000000000000000000000000000000000000000000000000000000000000000000000000000000000000000000000000000000000000000000000000000000000000000000000000000000000000000000000000000000000000000000000000000000000000000000000000000000000000000000000000000000000000000000000000000000000000000000000000",
      "type": "0x2",
      "transactionHash": "0x9223135927dd4ea30b862c5ba4acc02ff15edf410705b0ecd30517e73ca3e77b",
      "transactionIndex": "0x26",
      "blockHash": "0x0c4be56033d9f631d4b5e8c082d79f697fb45eaf0ffdcb45eb721dba15a62cb8",
      "blockNumber": "0x6cd72f",
      "gasUsed": "0x10801",
      "effectiveGasPrice": "0x625ede0c",
      "from": "0x8029505591a4e95ce2945b62d46e64dc4ddc9dec",
      "to": "0x0cf69a44c158fc145a39a1a578074a4831493742",
      "contractAddress": null
    },
    {
      "status": "0x1",
      "cumulativeGasUsed": "0x92bdab",
      "logs": [],
      "logsBloom": "0x00000000000000000000000000000000000000000000000000000000000000000000000000000000000000000000000000000000000000000000000000000000000000000000000000000000000000000000000000000000000000000000000000000000000000000000000000000000000000000000000000000000000000000000000000000000000000000000000000000000000000000000000000000000000000000000000000000000000000000000000000000000000000000000000000000000000000000000000000000000000000000000000000000000000000000000000000000000000000000000000000000000000000000000000000000000",
      "type": "0x2",
      "transactionHash": "0xfb828a4495b794168d0d71c140528ff36a09c43e9fe6b8e3576fbc75512bc807",
      "transactionIndex": "0x27",
      "blockHash": "0x0c4be56033d9f631d4b5e8c082d79f697fb45eaf0ffdcb45eb721dba15a62cb8",
      "blockNumber": "0x6cd72f",
      "gasUsed": "0x111e8",
      "effectiveGasPrice": "0x625ede0c",
      "from": "0x8029505591a4e95ce2945b62d46e64dc4ddc9dec",
      "to": "0x0cf69a44c158fc145a39a1a578074a4831493742",
      "contractAddress": null
    },
    {
      "status": "0x1",
      "cumulativeGasUsed": "0x93d97a",
      "logs": [],
      "logsBloom": "0x00000000000000000000000000000000000000000000000000000000000000000000000000000000000000000000000000000000000000000000000000000000000000000000000000000000000000000000000000000000000000000000000000000000000000000000000000000000000000000000000000000000000000000000000000000000000000000000000000000000000000000000000000000000000000000000000000000000000000000000000000000000000000000000000000000000000000000000000000000000000000000000000000000000000000000000000000000000000000000000000000000000000000000000000000000000",
      "type": "0x2",
      "transactionHash": "0x034d6a73e34ade8a611d7e9c33d3069e9e747e58d3f398193ea738ac0f8b060f",
      "transactionIndex": "0x28",
      "blockHash": "0x0c4be56033d9f631d4b5e8c082d79f697fb45eaf0ffdcb45eb721dba15a62cb8",
      "blockNumber": "0x6cd72f",
      "gasUsed": "0x11bcf",
      "effectiveGasPrice": "0x625ede0c",
      "from": "0x8029505591a4e95ce2945b62d46e64dc4ddc9dec",
      "to": "0x0cf69a44c158fc145a39a1a578074a4831493742",
      "contractAddress": null
    },
    {
      "status": "0x1",
      "cumulativeGasUsed": "0x94ff30",
      "logs": [],
      "logsBloom": "0x00000000000000000000000000000000000000000000000000000000000000000000000000000000000000000000000000000000000000000000000000000000000000000000000000000000000000000000000000000000000000000000000000000000000000000000000000000000000000000000000000000000000000000000000000000000000000000000000000000000000000000000000000000000000000000000000000000000000000000000000000000000000000000000000000000000000000000000000000000000000000000000000000000000000000000000000000000000000000000000000000000000000000000000000000000000",
      "type": "0x2",
      "transactionHash": "0x17b23538e0f2fdbb23057ae0b86de037bf59672bcd042f45483b603b99198daa",
      "transactionIndex": "0x29",
      "blockHash": "0x0c4be56033d9f631d4b5e8c082d79f697fb45eaf0ffdcb45eb721dba15a62cb8",
      "blockNumber": "0x6cd72f",
      "gasUsed": "0x125b6",
      "effectiveGasPrice": "0x625ede0c",
      "from": "0x8029505591a4e95ce2945b62d46e64dc4ddc9dec",
      "to": "0x0cf69a44c158fc145a39a1a578074a4831493742",
      "contractAddress": null
    }
  ],
  "libraries": [],
  "pending": [],
  "returns": {},
  "timestamp": 1732324441,
  "chain": 11155111,
  "commit": "18e3c44"
}