{
  "transactions": [
    {
      "hash": "0xc787aef0a56685552756b21bb944ce7782aa0df92447969a53b39716d4561f86",
      "transactionType": "CALL",
      "contractName": null,
      "contractAddress": "0x0cf69a44c158fc145a39a1a578074a4831493742",
      "function": "follow_the_link(address)",
      "arguments": [
        "0x8029505591A4e95cE2945B62d46e64dC4dDC9DeC"
      ],
      "transaction": {
        "from": "0x9dea6fc5b27b3de4eddbfcacd8e4cc02e0910c26",
        "to": "0x0cf69a44c158fc145a39a1a578074a4831493742",
        "gas": "0x135f1",
        "value": "0x0",
        "input": "0x2cbd24060000000000000000000000008029505591a4e95ce2945b62d46e64dc4ddc9dec",
        "nonce": "0x3",
        "chainId": "0xaa36a7"
      },
      "additionalContracts": [],
      "isFixedGasLimit": false
    },
    {
      "hash": "0x601e44d75e62580aa6846fb0dbad9927eaa23b9225bc0b165a24dc1c70709c5c",
      "transactionType": "CALL",
      "contractName": null,
      "contractAddress": "0x0cf69a44c158fc145a39a1a578074a4831493742",
      "function": "follow_the_link(address)",
      "arguments": [
        "0x8029505591A4e95cE2945B62d46e64dC4dDC9DeC"
      ],
      "transaction": {
        "from": "0x9dea6fc5b27b3de4eddbfcacd8e4cc02e0910c26",
        "to": "0x0cf69a44c158fc145a39a1a578074a4831493742",
        "gas": "0x1439e",
        "value": "0x0",
        "input": "0x2cbd24060000000000000000000000008029505591a4e95ce2945b62d46e64dc4ddc9dec",
        "nonce": "0x4",
        "chainId": "0xaa36a7"
      },
      "additionalContracts": [],
      "isFixedGasLimit": false
    },
    {
      "hash": "0x6bb976acd09f035b9f577ed06c7bdf40af686f97dc4618b66b8fd0c6de5882f1",
      "transactionType": "CALL",
      "contractName": null,
      "contractAddress": "0x0cf69a44c158fc145a39a1a578074a4831493742",
      "function": "follow_the_link(address)",
      "arguments": [
        "0x8029505591A4e95cE2945B62d46e64dC4dDC9DeC"
      ],
      "transaction": {
        "from": "0x9dea6fc5b27b3de4eddbfcacd8e4cc02e0910c26",
        "to": "0x0cf69a44c158fc145a39a1a578074a4831493742",
        "gas": "0x16523",
        "value": "0x0",
        "input": "0x2cbd24060000000000000000000000008029505591a4e95ce2945b62d46e64dc4ddc9dec",
        "nonce": "0x5",
        "chainId": "0xaa36a7"
      },
      "additionalContracts": [],
      "isFixedGasLimit": false
    },
    {
      "hash": "0xc679dcf74be5c12be7fefe9bf9f8ac96a69bcd3821d0356131b0199a1af174e3",
      "transactionType": "CALL",
      "contractName": null,
      "contractAddress": "0x0cf69a44c158fc145a39a1a578074a4831493742",
      "function": "follow_the_link(address)",
      "arguments": [
        "0x8029505591A4e95cE2945B62d46e64dC4dDC9DeC"
      ],
      "transaction": {
        "from": "0x9dea6fc5b27b3de4eddbfcacd8e4cc02e0910c26",
        "to": "0x0cf69a44c158fc145a39a1a578074a4831493742",
        "gas": "0x1739f",
        "value": "0x0",
        "input": "0x2cbd24060000000000000000000000008029505591a4e95ce2945b62d46e64dc4ddc9dec",
        "nonce": "0x6",
        "chainId": "0xaa36a7"
      },
      "additionalContracts": [],
      "isFixedGasLimit": false
    },
    {
      "hash": "0xd6483615772896dcd0096d465a923e901bd10a27570aa3a77b1bc3e6dbe3eaf7",
      "transactionType": "CALL",
      "contractName": null,
      "contractAddress": "0x0cf69a44c158fc145a39a1a578074a4831493742",
      "function": "follow_the_link(address)",
      "arguments": [
        "0x8029505591A4e95cE2945B62d46e64dC4dDC9DeC"
      ],
      "transaction": {
        "from": "0x9dea6fc5b27b3de4eddbfcacd8e4cc02e0910c26",
        "to": "0x0cf69a44c158fc145a39a1a578074a4831493742",
        "gas": "0x1821a",
        "value": "0x0",
        "input": "0x2cbd24060000000000000000000000008029505591a4e95ce2945b62d46e64dc4ddc9dec",
        "nonce": "0x7",
        "chainId": "0xaa36a7"
      },
      "additionalContracts": [],
      "isFixedGasLimit": false
    },
    {
      "hash": "0xb3caabe1966aa156e023ea14cc7f8a8fc8bc2528a50edecb21ce483513e9eed3",
      "transactionType": "CALL",
      "contractName": null,
      "contractAddress": "0x0cf69a44c158fc145a39a1a578074a4831493742",
      "function": "follow_the_link(address)",
      "arguments": [
        "0x8029505591A4e95cE2945B62d46e64dC4dDC9DeC"
      ],
      "transaction": {
        "from": "0x9dea6fc5b27b3de4eddbfcacd8e4cc02e0910c26",
        "to": "0x0cf69a44c158fc145a39a1a578074a4831493742",
        "gas": "0x17a54",
        "value": "0x0",
        "input": "0x2cbd24060000000000000000000000008029505591a4e95ce2945b62d46e64dc4ddc9dec",
        "nonce": "0x8",
        "chainId": "0xaa36a7"
      },
      "additionalContracts": [],
      "isFixedGasLimit": false
    },
    {
      "hash": "0x7c3edc072016115a97bc92234b5eb4299eea8996000c521b00d006d627059ff4",
      "transactionType": "CALL",
      "contractName": null,
      "contractAddress": "0x0cf69a44c158fc145a39a1a578074a4831493742",
      "function": "follow_the_link(address)",
      "arguments": [
        "0x8029505591A4e95cE2945B62d46e64dC4dDC9DeC"
      ],
      "transaction": {
        "from": "0x9dea6fc5b27b3de4eddbfcacd8e4cc02e0910c26",
        "to": "0x0cf69a44c158fc145a39a1a578074a4831493742",
        "gas": "0x18801",
        "value": "0x0",
        "input": "0x2cbd24060000000000000000000000008029505591a4e95ce2945b62d46e64dc4ddc9dec",
        "nonce": "0x9",
        "chainId": "0xaa36a7"
      },
      "additionalContracts": [],
      "isFixedGasLimit": false
    },
    {
      "hash": "0x47ca8ef29d6cc1980f5b842625fc088f77b5b7a15a5f05202a9d9fd2c898136b",
      "transactionType": "CALL",
      "contractName": null,
      "contractAddress": "0x0cf69a44c158fc145a39a1a578074a4831493742",
      "function": "follow_the_link(address)",
      "arguments": [
        "0x8029505591A4e95cE2945B62d46e64dC4dDC9DeC"
      ],
      "transaction": {
        "from": "0x9dea6fc5b27b3de4eddbfcacd8e4cc02e0910c26",
        "to": "0x0cf69a44c158fc145a39a1a578074a4831493742",
        "gas": "0x195af",
        "value": "0x0",
        "input": "0x2cbd24060000000000000000000000008029505591a4e95ce2945b62d46e64dc4ddc9dec",
        "nonce": "0xa",
        "chainId": "0xaa36a7"
      },
      "additionalContracts": [],
      "isFixedGasLimit": false
    },
    {
      "hash": "0xd3605aaf6125156229c4f18627a0ec4c1f009760ed48f2cac35d74dcaa9b866c",
      "transactionType": "CALL",
      "contractName": null,
      "contractAddress": "0x0cf69a44c158fc145a39a1a578074a4831493742",
      "function": "follow_the_link(address)",
      "arguments": [
        "0x8029505591A4e95cE2945B62d46e64dC4dDC9DeC"
      ],
      "transaction": {
        "from": "0x9dea6fc5b27b3de4eddbfcacd8e4cc02e0910c26",
        "to": "0x0cf69a44c158fc145a39a1a578074a4831493742",
        "gas": "0x1a35c",
        "value": "0x0",
        "input": "0x2cbd24060000000000000000000000008029505591a4e95ce2945b62d46e64dc4ddc9dec",
        "nonce": "0xb",
        "chainId": "0xaa36a7"
      },
      "additionalContracts": [],
      "isFixedGasLimit": false
    },
    {
      "hash": "0x4288faa0a3e20cfacba4ec7c6ab75f8f7e7f4aa50b466cf86923d80aa51b631a",
      "transactionType": "CALL",
      "contractName": null,
      "contractAddress": "0x0cf69a44c158fc145a39a1a578074a4831493742",
      "function": "follow_the_link(address)",
      "arguments": [
        "0x8029505591A4e95cE2945B62d46e64dC4dDC9DeC"
      ],
      "transaction": {
        "from": "0x9dea6fc5b27b3de4eddbfcacd8e4cc02e0910c26",
        "to": "0x0cf69a44c158fc145a39a1a578074a4831493742",
        "gas": "0x1b10a",
        "value": "0x0",
        "input": "0x2cbd24060000000000000000000000008029505591a4e95ce2945b62d46e64dc4ddc9dec",
        "nonce": "0xc",
        "chainId": "0xaa36a7"
      },
      "additionalContracts": [],
      "isFixedGasLimit": false
    }
  ],
  "receipts": [
    {
      "status": "0x1",
      "cumulativeGasUsed": "0xfdf4f9",
      "logs": [],
      "logsBloom": "0x00000000000000000000000000000000000000000000000000000000000000000000000000000000000000000000000000000000000000000000000000000000000000000000000000000000000000000000000000000000000000000000000000000000000000000000000000000000000000000000000000000000000000000000000000000000000000000000000000000000000000000000000000000000000000000000000000000000000000000000000000000000000000000000000000000000000000000000000000000000000000000000000000000000000000000000000000000000000000000000000000000000000000000000000000000000",
      "type": "0x2",
      "transactionHash": "0xc787aef0a56685552756b21bb944ce7782aa0df92447969a53b39716d4561f86",
      "transactionIndex": "0x5b",
      "blockHash": "0x71bcdbd5802b956a1d38c907087be0ef5e945f61b38fb2c01066af1e4da1e959",
      "blockNumber": "0x6cd6ef",
      "gasUsed": "0xe065",
      "effectiveGasPrice": "0x15d44862",
      "from": "0x9dea6fc5b27b3de4eddbfcacd8e4cc02e0910c26",
      "to": "0x0cf69a44c158fc145a39a1a578074a4831493742",
      "contractAddress": null
    },
    {
      "status": "0x1",
      "cumulativeGasUsed": "0xfedf45",
      "logs": [],
      "logsBloom": "0x00000000000000000000000000000000000000000000000000000000000000000000000000000000000000000000000000000000000000000000000000000000000000000000000000000000000000000000000000000000000000000000000000000000000000000000000000000000000000000000000000000000000000000000000000000000000000000000000000000000000000000000000000000000000000000000000000000000000000000000000000000000000000000000000000000000000000000000000000000000000000000000000000000000000000000000000000000000000000000000000000000000000000000000000000000000",
      "type": "0x2",
      "transactionHash": "0x601e44d75e62580aa6846fb0dbad9927eaa23b9225bc0b165a24dc1c70709c5c",
      "transactionIndex": "0x5c",
      "blockHash": "0x71bcdbd5802b956a1d38c907087be0ef5e945f61b38fb2c01066af1e4da1e959",
      "blockNumber": "0x6cd6ef",
      "gasUsed": "0xea4c",
      "effectiveGasPrice": "0x15d44862",
      "from": "0x9dea6fc5b27b3de4eddbfcacd8e4cc02e0910c26",
      "to": "0x0cf69a44c158fc145a39a1a578074a4831493742",
      "contractAddress": null
    },
    {
      "status": "0x1",
      "cumulativeGasUsed": "0xffd378",
      "logs": [],
      "logsBloom": "0x00000000000000000000000000000000000000000000000000000000000000000000000000000000000000000000000000000000000000000000000000000000000000000000000000000000000000000000000000000000000000000000000000000000000000000000000000000000000000000000000000000000000000000000000000000000000000000000000000000000000000000000000000000000000000000000000000000000000000000000000000000000000000000000000000000000000000000000000000000000000000000000000000000000000000000000000000000000000000000000000000000000000000000000000000000000",
      "type": "0x2",
      "transactionHash": "0x6bb976acd09f035b9f577ed06c7bdf40af686f97dc4618b66b8fd0c6de5882f1",
      "transactionIndex": "0x5d",
      "blockHash": "0x71bcdbd5802b956a1d38c907087be0ef5e945f61b38fb2c01066af1e4da1e959",
      "blockNumber": "0x6cd6ef",
      "gasUsed": "0xf433",
      "effectiveGasPrice": "0x15d44862",
      "from": "0x9dea6fc5b27b3de4eddbfcacd8e4cc02e0910c26",
      "to": "0x0cf69a44c158fc145a39a1a578074a4831493742",
      "contractAddress": null
    },
    {
      "status": "0x1",
      "cumulativeGasUsed": "0x100d192",
      "logs": [],
      "logsBloom": "0x00000000000000000000000000000000000000000000000000000000000000000000000000000000000000000000000000000000000000000000000000000000000000000000000000000000000000000000000000000000000000000000000000000000000000000000000000000000000000000000000000000000000000000000000000000000000000000000000000000000000000000000000000000000000000000000000000000000000000000000000000000000000000000000000000000000000000000000000000000000000000000000000000000000000000000000000000000000000000000000000000000000000000000000000000000000",
      "type": "0x2",
      "transactionHash": "0xc679dcf74be5c12be7fefe9bf9f8ac96a69bcd3821d0356131b0199a1af174e3",
      "transactionIndex": "0x5e",
      "blockHash": "0x71bcdbd5802b956a1d38c907087be0ef5e945f61b38fb2c01066af1e4da1e959",
      "blockNumber": "0x6cd6ef",
      "gasUsed": "0xfe1a",
      "effectiveGasPrice": "0x15d44862",
      "from": "0x9dea6fc5b27b3de4eddbfcacd8e4cc02e0910c26",
      "to": "0x0cf69a44c158fc145a39a1a578074a4831493742",
      "contractAddress": null
    },
    {
      "status": "0x1",
      "cumulativeGasUsed": "0x101d993",
      "logs": [],
      "logsBloom": "0x00000000000000000000000000000000000000000000000000000000000000000000000000000000000000000000000000000000000000000000000000000000000000000000000000000000000000000000000000000000000000000000000000000000000000000000000000000000000000000000000000000000000000000000000000000000000000000000000000000000000000000000000000000000000000000000000000000000000000000000000000000000000000000000000000000000000000000000000000000000000000000000000000000000000000000000000000000000000000000000000000000000000000000000000000000000",
      "type": "0x2",
      "transactionHash": "0xd6483615772896dcd0096d465a923e901bd10a27570aa3a77b1bc3e6dbe3eaf7",
      "transactionIndex": "0x5f",
      "blockHash": "0x71bcdbd5802b956a1d38c907087be0ef5e945f61b38fb2c01066af1e4da1e959",
      "blockNumber": "0x6cd6ef",
      "gasUsed": "0x10801",
      "effectiveGasPrice": "0x15d44862",
      "from": "0x9dea6fc5b27b3de4eddbfcacd8e4cc02e0910c26",
      "to": "0x0cf69a44c158fc145a39a1a578074a4831493742",
      "contractAddress": null
    },
    {
      "status": "0x1",
      "cumulativeGasUsed": "0x102eb7b",
      "logs": [],
      "logsBloom": "0x00000000000000000000000000000000000000000000000000000000000000000000000000000000000000000000000000000000000000000000000000000000000000000000000000000000000000000000000000000000000000000000000000000000000000000000000000000000000000000000000000000000000000000000000000000000000000000000000000000000000000000000000000000000000000000000000000000000000000000000000000000000000000000000000000000000000000000000000000000000000000000000000000000000000000000000000000000000000000000000000000000000000000000000000000000000",
      "type": "0x2",
      "transactionHash": "0xb3caabe1966aa156e023ea14cc7f8a8fc8bc2528a50edecb21ce483513e9eed3",
      "transactionIndex": "0x60",
      "blockHash": "0x71bcdbd5802b956a1d38c907087be0ef5e945f61b38fb2c01066af1e4da1e959",
      "blockNumber": "0x6cd6ef",
      "gasUsed": "0x111e8",
      "effectiveGasPrice": "0x15d44862",
      "from": "0x9dea6fc5b27b3de4eddbfcacd8e4cc02e0910c26",
      "to": "0x0cf69a44c158fc145a39a1a578074a4831493742",
      "contractAddress": null
    },
    {
      "status": "0x1",
      "cumulativeGasUsed": "0x104074a",
      "logs": [],
      "logsBloom": "0x00000000000000000000000000000000000000000000000000000000000000000000000000000000000000000000000000000000000000000000000000000000000000000000000000000000000000000000000000000000000000000000000000000000000000000000000000000000000000000000000000000000000000000000000000000000000000000000000000000000000000000000000000000000000000000000000000000000000000000000000000000000000000000000000000000000000000000000000000000000000000000000000000000000000000000000000000000000000000000000000000000000000000000000000000000000",
      "type": "0x2",
      "transactionHash": "0x7c3edc072016115a97bc92234b5eb4299eea8996000c521b00d006d627059ff4",
      "transactionIndex": "0x61",
      "blockHash": "0x71bcdbd5802b956a1d38c907087be0ef5e945f61b38fb2c01066af1e4da1e959",
      "blockNumber": "0x6cd6ef",
      "gasUsed": "0x11bcf",
      "effectiveGasPrice": "0x15d44862",
      "from": "0x9dea6fc5b27b3de4eddbfcacd8e4cc02e0910c26",
      "to": "0x0cf69a44c158fc145a39a1a578074a4831493742",
      "contractAddress": null
    },
    {
      "status": "0x1",
      "cumulativeGasUsed": "0x1052d00",
      "logs": [],
      "logsBloom": "0x00000000000000000000000000000000000000000000000000000000000000000000000000000000000000000000000000000000000000000000000000000000000000000000000000000000000000000000000000000000000000000000000000000000000000000000000000000000000000000000000000000000000000000000000000000000000000000000000000000000000000000000000000000000000000000000000000000000000000000000000000000000000000000000000000000000000000000000000000000000000000000000000000000000000000000000000000000000000000000000000000000000000000000000000000000000",
      "type": "0x2",
      "transactionHash": "0x47ca8ef29d6cc1980f5b842625fc088f77b5b7a15a5f05202a9d9fd2c898136b",
      "transactionIndex": "0x62",
      "blockHash": "0x71bcdbd5802b956a1d38c907087be0ef5e945f61b38fb2c01066af1e4da1e959",
      "blockNumber": "0x6cd6ef",
      "gasUsed": "0x125b6",
      "effectiveGasPrice": "0x15d44862",
      "from": "0x9dea6fc5b27b3de4eddbfcacd8e4cc02e0910c26",
      "to": "0x0cf69a44c158fc145a39a1a578074a4831493742",
      "contractAddress": null
    },
    {
      "status": "0x1",
      "cumulativeGasUsed": "0x1065c9d",
      "logs": [],
      "logsBloom": "0x00000000000000000000000000000000000000000000000000000000000000000000000000000000000000000000000000000000000000000000000000000000000000000000000000000000000000000000000000000000000000000000000000000000000000000000000000000000000000000000000000000000000000000000000000000000000000000000000000000000000000000000000000000000000000000000000000000000000000000000000000000000000000000000000000000000000000000000000000000000000000000000000000000000000000000000000000000000000000000000000000000000000000000000000000000000",
      "type": "0x2",
      "transactionHash": "0xd3605aaf6125156229c4f18627a0ec4c1f009760ed48f2cac35d74dcaa9b866c",
      "transactionIndex": "0x63",
      "blockHash": "0x71bcdbd5802b956a1d38c907087be0ef5e945f61b38fb2c01066af1e4da1e959",
      "blockNumber": "0x6cd6ef",
      "gasUsed": "0x12f9d",
      "effectiveGasPrice": "0x15d44862",
      "from": "0x9dea6fc5b27b3de4eddbfcacd8e4cc02e0910c26",
      "to": "0x0cf69a44c158fc145a39a1a578074a4831493742",
      "contractAddress": null
    },
    {
      "status": "0x1",
      "cumulativeGasUsed": "0x1079621",
      "logs": [],
      "logsBloom": "0x00000000000000000000000000000000000000000000000000000000000000000000000000000000000000000000000000000000000000000000000000000000000000000000000000000000000000000000000000000000000000000000000000000000000000000000000000000000000000000000000000000000000000000000000000000000000000000000000000000000000000000000000000000000000000000000000000000000000000000000000000000000000000000000000000000000000000000000000000000000000000000000000000000000000000000000000000000000000000000000000000000000000000000000000000000000",
      "type": "0x2",
      "transactionHash": "0x4288faa0a3e20cfacba4ec7c6ab75f8f7e7f4aa50b466cf86923d80aa51b631a",
      "transactionIndex": "0x64",
      "blockHash": "0x71bcdbd5802b956a1d38c907087be0ef5e945f61b38fb2c01066af1e4da1e959",
      "blockNumber": "0x6cd6ef",
      "gasUsed": "0x13984",
      "effectiveGasPrice": "0x15d44862",
      "from": "0x9dea6fc5b27b3de4eddbfcacd8e4cc02e0910c26",
      "to": "0x0cf69a44c158fc145a39a1a578074a4831493742",
      "contractAddress": null
    }
  ],
  "libraries": [],
  "pending": [],
  "returns": {},
  "timestamp": 1732323638,
  "chain": 11155111,
  "commit": "18e3c44"
}