{
  "transactions": [
    {
      "hash": "0x645e729a0bca2aaa46fdd1172c90a2c0c06b312ed0e9469804155814eeab5256",
      "transactionType": "CALL",
      "contractName": null,
      "contractAddress": "0x38e1f652b593a5d01c549bd276c3250ccd95d2db",
      "function": "approve(address,uint256)",
      "arguments": [
        "0x83F7f1D3Ab4978C0A5c8B0c003790CaEF2cbfE86",
        "228000000000000000000000000000001"
      ],
      "transaction": {
        "from": "0x8029505591a4e95ce2945b62d46e64dc4ddc9dec",
        "to": "0x38e1f652b593a5d01c549bd276c3250ccd95d2db",
        "gas": "0xfa27",
        "value": "0x0",
        "input": "0x095ea7b300000000000000000000000083f7f1d3ab4978c0a5c8b0c003790caef2cbfe860000000000000000000000000000000000000b3dc3bba97ec023e4a100000001",
        "nonce": "0x107",
        "chainId": "0xaa36a7"
      },
      "additionalContracts": [],
      "isFixedGasLimit": false
    },
    {
      "hash": "0x1b0269bf1eefc784336087036a10dcb232e9111cc09cb3a97ba1d7169a12bc92",
      "transactionType": "CALL",
      "contractName": null,
      "contractAddress": "0x0cb7587e11a79dd8e39c7df95c550562b6ca518b",
      "function": "approve(address,uint256)",
      "arguments": [
        "0x83F7f1D3Ab4978C0A5c8B0c003790CaEF2cbfE86",
        "228000000000000000000000000000001"
      ],
      "transaction": {
        "from": "0x8029505591a4e95ce2945b62d46e64dc4ddc9dec",
        "to": "0x0cb7587e11a79dd8e39c7df95c550562b6ca518b",
        "gas": "0xfa27",
        "value": "0x0",
        "input": "0x095ea7b300000000000000000000000083f7f1d3ab4978c0a5c8b0c003790caef2cbfe860000000000000000000000000000000000000b3dc3bba97ec023e4a100000001",
        "nonce": "0x108",
        "chainId": "0xaa36a7"
      },
      "additionalContracts": [],
      "isFixedGasLimit": false
    },
    {
      "hash": "0x01db6d6cd54092a89075068ec9034f535b2a5a00093fb33433c2492cd46592fa",
      "transactionType": "CALL",
      "contractName": null,
      "contractAddress": "0x83f7f1d3ab4978c0a5c8b0c003790caef2cbfe86",
      "function": "borrow(uint256)",
      "arguments": [
        "999999999999999900"
      ],
      "transaction": {
        "from": "0x8029505591a4e95ce2945b62d46e64dc4ddc9dec",
        "to": "0x83f7f1d3ab4978c0a5c8b0c003790caef2cbfe86",
        "gas": "0x29130",
        "value": "0x0",
        "input": "0xc5ebeaec0000000000000000000000000000000000000000000000000de0b6b3a763ff9c",
        "nonce": "0x109",
        "chainId": "0xaa36a7"
      },
      "additionalContracts": [],
      "isFixedGasLimit": false
    }
  ],
  "receipts": [
    {
      "status": "0x1",
      "cumulativeGasUsed": "0x763c0d",
      "logs": [
        {
          "address": "0x38e1f652b593a5d01c549bd276c3250ccd95d2db",
          "topics": [
            "0x8c5be1e5ebec7d5bd14f71427d1e84f3dd0314c0f7b2291e5b200ac8c7c3b925",
            "0x0000000000000000000000008029505591a4e95ce2945b62d46e64dc4ddc9dec",
            "0x00000000000000000000000083f7f1d3ab4978c0a5c8b0c003790caef2cbfe86"
          ],
          "data": "0x0000000000000000000000000000000000000b3dc3bba97ec023e4a100000001",
          "blockHash": "0x089b3c9fc2fdb5f5584fa820f0352731d7db4abf0f05455984dfd9e6096de642",
          "blockNumber": "0x6f2a76",
          "transactionHash": "0x645e729a0bca2aaa46fdd1172c90a2c0c06b312ed0e9469804155814eeab5256",
          "transactionIndex": "0x43",
          "logIndex": "0x14b",
          "removed": false
        }
      ],
      "logsBloom": "0x00000000000000200000000000000000000000000000000000000000000000000000000000000000000000080000000000000000000000000000000000200000000000000000000000000000000000000000000000008000000000000000000000000001000000000000000020000000000000000000000000000000000000000000000000000000000000000000000000000000000001000000000000000000020000000000000000000000000000800000000000000000000000000000000000000000000000000000000000000000000000000000000000000000000400000018000000000000000000000000000000000000000000000000000000000000",
      "type": "0x2",
      "transactionHash": "0x645e729a0bca2aaa46fdd1172c90a2c0c06b312ed0e9469804155814eeab5256",
      "transactionIndex": "0x43",
      "blockHash": "0x089b3c9fc2fdb5f5584fa820f0352731d7db4abf0f05455984dfd9e6096de642",
      "blockNumber": "0x6f2a76",
      "gasUsed": "0xb51c",
      "effectiveGasPrice": "0x722cfaca9",
      "from": "0x8029505591a4e95ce2945b62d46e64dc4ddc9dec",
      "to": "0x38e1f652b593a5d01c549bd276c3250ccd95d2db",
      "contractAddress": null
    },
    {
      "status": "0x1",
      "cumulativeGasUsed": "0x76f129",
      "logs": [
        {
          "address": "0x0cb7587e11a79dd8e39c7df95c550562b6ca518b",
          "topics": [
            "0x8c5be1e5ebec7d5bd14f71427d1e84f3dd0314c0f7b2291e5b200ac8c7c3b925",
            "0x0000000000000000000000008029505591a4e95ce2945b62d46e64dc4ddc9dec",
            "0x00000000000000000000000083f7f1d3ab4978c0a5c8b0c003790caef2cbfe86"
          ],
          "data": "0x0000000000000000000000000000000000000b3dc3bba97ec023e4a100000001",
          "blockHash": "0x089b3c9fc2fdb5f5584fa820f0352731d7db4abf0f05455984dfd9e6096de642",
          "blockNumber": "0x6f2a76",
          "transactionHash": "0x1b0269bf1eefc784336087036a10dcb232e9111cc09cb3a97ba1d7169a12bc92",
          "transactionIndex": "0x44",
          "logIndex": "0x14c",
          "removed": false
        }
      ],
      "logsBloom": "0x00000000000000000000000000000000000000000000000000000000000000000000000000000000000000080000000000000000000000000000000000200000000000000000000000000000000004000000000000008000000000000000000000000000000000000000000020000000000000000000000000000000000000000000000000000000000000000000000000000000000001000000000000000000020000000000000000000000000000000000400000000000000000000000000000000000000000000000000000000000000000000000000000000000000400000018000000000000000000000000200000000000000000000000000000000000",
      "type": "0x2",
      "transactionHash": "0x1b0269bf1eefc784336087036a10dcb232e9111cc09cb3a97ba1d7169a12bc92",
      "transactionIndex": "0x44",
      "blockHash": "0x089b3c9fc2fdb5f5584fa820f0352731d7db4abf0f05455984dfd9e6096de642",
      "blockNumber": "0x6f2a76",
      "gasUsed": "0xb51c",
      "effectiveGasPrice": "0x722cfaca9",
      "from": "0x8029505591a4e95ce2945b62d46e64dc4ddc9dec",
      "to": "0x0cb7587e11a79dd8e39c7df95c550562b6ca518b",
      "contractAddress": null
    },
    {
      "status": "0x1",
      "cumulativeGasUsed": "0x78ccf5",
      "logs": [
        {
          "address": "0x38e1f652b593a5d01c549bd276c3250ccd95d2db",
          "topics": [
            "0xddf252ad1be2c89b69c2b068fc378daa952ba7f163c4a11628f55a4df523b3ef",
            "0x0000000000000000000000008029505591a4e95ce2945b62d46e64dc4ddc9dec",
            "0x00000000000000000000000083f7f1d3ab4978c0a5c8b0c003790caef2cbfe86"
          ],
          "data": "0x0000000000000000000000000000000000000000000000000c5c22b801150fa6",
          "blockHash": "0x089b3c9fc2fdb5f5584fa820f0352731d7db4abf0f05455984dfd9e6096de642",
          "blockNumber": "0x6f2a76",
          "transactionHash": "0x01db6d6cd54092a89075068ec9034f535b2a5a00093fb33433c2492cd46592fa",
          "transactionIndex": "0x45",
          "logIndex": "0x14d",
          "removed": false
        },
        {
          "address": "0x38e1f652b593a5d01c549bd276c3250ccd95d2db",
          "topics": [
            "0x8c5be1e5ebec7d5bd14f71427d1e84f3dd0314c0f7b2291e5b200ac8c7c3b925",
            "0x0000000000000000000000008029505591a4e95ce2945b62d46e64dc4ddc9dec",
            "0x00000000000000000000000083f7f1d3ab4978c0a5c8b0c003790caef2cbfe86"
          ],
          "data": "0x0000000000000000000000000000000000000b3dc3bba97eb3c7c1e8feeaf05b",
          "blockHash": "0x089b3c9fc2fdb5f5584fa820f0352731d7db4abf0f05455984dfd9e6096de642",
          "blockNumber": "0x6f2a76",
          "transactionHash": "0x01db6d6cd54092a89075068ec9034f535b2a5a00093fb33433c2492cd46592fa",
          "transactionIndex": "0x45",
          "logIndex": "0x14e",
          "removed": false
        },
        {
          "address": "0x0cb7587e11a79dd8e39c7df95c550562b6ca518b",
          "topics": [
            "0xddf252ad1be2c89b69c2b068fc378daa952ba7f163c4a11628f55a4df523b3ef",
            "0x00000000000000000000000083f7f1d3ab4978c0a5c8b0c003790caef2cbfe86",
            "0x0000000000000000000000008029505591a4e95ce2945b62d46e64dc4ddc9dec"
          ],
          "data": "0x0000000000000000000000000000000000000000000000000de0b6b3a763ff9c",
          "blockHash": "0x089b3c9fc2fdb5f5584fa820f0352731d7db4abf0f05455984dfd9e6096de642",
          "blockNumber": "0x6f2a76",
          "transactionHash": "0x01db6d6cd54092a89075068ec9034f535b2a5a00093fb33433c2492cd46592fa",
          "transactionIndex": "0x45",
          "logIndex": "0x14f",
          "removed": false
        },
        {
          "address": "0x83f7f1d3ab4978c0a5c8b0c003790caef2cbfe86",
          "topics": [
            "0xeae9cfbc77fdd40ca899f36b608256063b2bc9d8178b0220f7ad513e178d6730",
            "0x0000000000000000000000008029505591a4e95ce2945b62d46e64dc4ddc9dec"
          ],
          "data": "0x0000000000000000000000000000000000000000000000000c5c22b801150fa60000000000000000000000000000000000000000000000000de0b6b3a763ff9c",
          "blockHash": "0x089b3c9fc2fdb5f5584fa820f0352731d7db4abf0f05455984dfd9e6096de642",
          "blockNumber": "0x6f2a76",
          "transactionHash": "0x01db6d6cd54092a89075068ec9034f535b2a5a00093fb33433c2492cd46592fa",
          "transactionIndex": "0x45",
          "logIndex": "0x150",
          "removed": false
        }
      ],
      "logsBloom": "0x00000000000000200000000000000000000000004000000000000000004000000000000000000000000000080000000000000000000000000000000000202000000000000000000000000008000004000000000000008000000000002000000000000001000000000000000020000000000000000000000000000010000000000000000080000000000000000000000000000000000001000000000000000000020000000000000000000000000000800000400000000000000000000000000000000002000000000000000000000000000000000000000000000000000400000018000000000000000000000000280000000000000000000000000000000000",
      "type": "0x2",
      "transactionHash": "0x01db6d6cd54092a89075068ec9034f535b2a5a00093fb33433c2492cd46592fa",
      "transactionIndex": "0x45",
      "blockHash": "0x089b3c9fc2fdb5f5584fa820f0352731d7db4abf0f05455984dfd9e6096de642",
      "blockNumber": "0x6f2a76",
      "gasUsed": "0x1dbcc",
      "effectiveGasPrice": "0x722cfaca9",
      "from": "0x8029505591a4e95ce2945b62d46e64dc4ddc9dec",
      "to": "0x83f7f1d3ab4978c0a5c8b0c003790caef2cbfe86",
      "contractAddress": null
    }
  ],
  "libraries": [],
  "pending": [],
  "returns": {},
  "timestamp": 1734282817,
  "chain": 11155111,
  "commit": "18e3c44"
}