{
  "transactions": [
    {
      "hash": "0x66dc3847270427157306455f4f593a7ecc5729a9c8d70d50591e2569ae0a2c1e",
      "transactionType": "CALL",
      "contractName": null,
      "contractAddress": "0xfa34943400540d9f5194b1e735472a143c03c304",
      "function": "transfer(address,uint256)",
      "arguments": [
        "0xFa34943400540d9f5194B1e735472a143c03c304",
        "1"
      ],
      "transaction": {
        "from": "0x8029505591a4e95ce2945b62d46e64dc4ddc9dec",
        "to": "0xfa34943400540d9f5194b1e735472a143c03c304",
        "gas": "0x1658f",
        "value": "0x0",
        "input": "0xa9059cbb000000000000000000000000fa34943400540d9f5194b1e735472a143c03c3040000000000000000000000000000000000000000000000000000000000000001",
        "nonce": "0xf5",
        "chainId": "0xaa36a7"
      },
      "additionalContracts": [],
      "isFixedGasLimit": false
    },
    {
      "hash": "0x19bdc11b5389e3841ef87fbb94198b34ded7624d4b301bec946fecdcd67da361",
      "transactionType": "CALL",
      "contractName": null,
      "contractAddress": "0xfa34943400540d9f5194b1e735472a143c03c304",
      "function": "transfer(address,uint256)",
      "arguments": [
        "0xFa34943400540d9f5194B1e735472a143c03c304",
        "2005000"
      ],
      "transaction": {
        "from": "0x8029505591a4e95ce2945b62d46e64dc4ddc9dec",
        "to": "0xfa34943400540d9f5194b1e735472a143c03c304",
        "gas": "0xad2a",
        "value": "0x0",
        "input": "0xa9059cbb000000000000000000000000fa34943400540d9f5194b1e735472a143c03c30400000000000000000000000000000000000000000000000000000000001e9808",
        "nonce": "0xf6",
        "chainId": "0xaa36a7"
      },
      "additionalContracts": [],
      "isFixedGasLimit": false
    },
    {
      "hash": "0xa2f0da17f21f40a3ce1d925966d03f75aa950af66415c56faf71ac9b40c20386",
      "transactionType": "CALL",
      "contractName": null,
      "contractAddress": "0xfa34943400540d9f5194b1e735472a143c03c304",
      "function": "privilegedborrowing(uint256,address,address,bytes)",
      "arguments": [
        "10",
        "0xFa34943400540d9f5194B1e735472a143c03c304",
        "0xFa34943400540d9f5194B1e735472a143c03c304",
        "0x095ea7b30000000000000000000000008029505591a4e95ce2945b62d46e64dc4ddc9dec0000000000000000000000000000000000000000000000000000000000030d41"
      ],
      "transaction": {
        "from": "0x8029505591a4e95ce2945b62d46e64dc4ddc9dec",
        "to": "0xfa34943400540d9f5194b1e735472a143c03c304",
        "gas": "0x126a3",
        "value": "0x0",
        "input": "0x9e163701000000000000000000000000000000000000000000000000000000000000000a000000000000000000000000fa34943400540d9f5194b1e735472a143c03c304000000000000000000000000fa34943400540d9f5194b1e735472a143c03c30400000000000000000000000000000000000000000000000000000000000000800000000000000000000000000000000000000000000000000000000000000044095ea7b30000000000000000000000008029505591a4e95ce2945b62d46e64dc4ddc9dec0000000000000000000000000000000000000000000000000000000000030d4100000000000000000000000000000000000000000000000000000000",
        "nonce": "0xf7",
        "chainId": "0xaa36a7"
      },
      "additionalContracts": [],
      "isFixedGasLimit": false
    },
    {
      "hash": "0xd91fd6bf1756a5407d8f7b720b726028d6c8ea5742ed7f1c4e73f79375285487",
      "transactionType": "CALL",
      "contractName": null,
      "contractAddress": "0xfa34943400540d9f5194b1e735472a143c03c304",
      "function": "setflag()",
      "arguments": [],
      "transaction": {
        "from": "0x8029505591a4e95ce2945b62d46e64dc4ddc9dec",
        "to": "0xfa34943400540d9f5194b1e735472a143c03c304",
        "gas": "0xa5dc",
        "value": "0x0",
        "input": "0x50647514",
        "nonce": "0xf8",
        "chainId": "0xaa36a7"
      },
      "additionalContracts": [],
      "isFixedGasLimit": false
    }
  ],
  "receipts": [
    {
      "status": "0x1",
      "cumulativeGasUsed": "0x58e30c",
      "logs": [],
      "logsBloom": "0x00000000000000000000000000000000000000000000000000000000000000000000000000000000000000000000000000000000000000000000000000000000000000000000000000000000000000000000000000000000000000000000000000000000000000000000000000000000000000000000000000000000000000000000000000000000000000000000000000000000000000000000000000000000000000000000000000000000000000000000000000000000000000000000000000000000000000000000000000000000000000000000000000000000000000000000000000000000000000000000000000000000000000000000000000000000",
      "type": "0x2",
      "transactionHash": "0x66dc3847270427157306455f4f593a7ecc5729a9c8d70d50591e2569ae0a2c1e",
      "transactionIndex": "0x90",
      "blockHash": "0x18e417debc027e52a1bae815e4049dc719e2902236d5c44be4b8a4a2eb4d4408",
      "blockNumber": "0x6d57a2",
      "gasUsed": "0x102df",
      "effectiveGasPrice": "0x29fee35b1",
      "from": "0x8029505591a4e95ce2945b62d46e64dc4ddc9dec",
      "to": "0xfa34943400540d9f5194b1e735472a143c03c304",
      "contractAddress": null
    },
    {
      "status": "0x1",
      "cumulativeGasUsed": "0x5a6d63",
      "logs": [],
      "logsBloom": "0x00000000000000000000000000000000000000000000000000000000000000000000000000000000000000000000000000000000000000000000000000000000000000000000000000000000000000000000000000000000000000000000000000000000000000000000000000000000000000000000000000000000000000000000000000000000000000000000000000000000000000000000000000000000000000000000000000000000000000000000000000000000000000000000000000000000000000000000000000000000000000000000000000000000000000000000000000000000000000000000000000000000000000000000000000000000",
      "type": "0x2",
      "transactionHash": "0x19bdc11b5389e3841ef87fbb94198b34ded7624d4b301bec946fecdcd67da361",
      "transactionIndex": "0x94",
      "blockHash": "0x18e417debc027e52a1bae815e4049dc719e2902236d5c44be4b8a4a2eb4d4408",
      "blockNumber": "0x6d57a2",
      "gasUsed": "0x7d5f",
      "effectiveGasPrice": "0x29fee35b1",
      "from": "0x8029505591a4e95ce2945b62d46e64dc4ddc9dec",
      "to": "0xfa34943400540d9f5194b1e735472a143c03c304",
      "contractAddress": null
    },
    {
      "status": "0x1",
      "cumulativeGasUsed": "0x5d5ca3",
      "logs": [
        {
          "address": "0xfa34943400540d9f5194b1e735472a143c03c304",
          "topics": [
            "0x8c5be1e5ebec7d5bd14f71427d1e84f3dd0314c0f7b2291e5b200ac8c7c3b925",
            "0x000000000000000000000000fa34943400540d9f5194b1e735472a143c03c304",
            "0x0000000000000000000000008029505591a4e95ce2945b62d46e64dc4ddc9dec"
          ],
          "data": "0x0000000000000000000000000000000000000000000000000000000000030d41",
          "blockHash": "0x18e417debc027e52a1bae815e4049dc719e2902236d5c44be4b8a4a2eb4d4408",
          "blockNumber": "0x6d57a2",
          "transactionHash": "0xa2f0da17f21f40a3ce1d925966d03f75aa950af66415c56faf71ac9b40c20386",
          "transactionIndex": "0x9b",
          "logIndex": "0x28",
          "removed": false
        }
      ],
      "logsBloom": "0x00000000000000000000000000000000000000000000000000000000000000000000000000000000000000000000000000000000000002000000000000200000000000000000000000000000000000020000000000008000000000000000000000000000000000000000000100000000000000000000000000000000000000000000000000000000000000000000000000000000001000000000000000000000020000000000000000000000000000000000000000000000000000000000000000000000000000000000000000000000000000000000000000000000000400000018000000000000010000000000000000000000000001000000000000000000",
      "type": "0x2",
      "transactionHash": "0xa2f0da17f21f40a3ce1d925966d03f75aa950af66415c56faf71ac9b40c20386",
      "transactionIndex": "0x9b",
      "blockHash": "0x18e417debc027e52a1bae815e4049dc719e2902236d5c44be4b8a4a2eb4d4408",
      "blockNumber": "0x6d57a2",
      "gasUsed": "0xd550",
      "effectiveGasPrice": "0x29fee35b1",
      "from": "0x8029505591a4e95ce2945b62d46e64dc4ddc9dec",
      "to": "0xfa34943400540d9f5194b1e735472a143c03c304",
      "contractAddress": null
    },
    {
      "status": "0x1",
      "cumulativeGasUsed": "0x5dd4b8",
      "logs": [],
      "logsBloom": "0x00000000000000000000000000000000000000000000000000000000000000000000000000000000000000000000000000000000000000000000000000000000000000000000000000000000000000000000000000000000000000000000000000000000000000000000000000000000000000000000000000000000000000000000000000000000000000000000000000000000000000000000000000000000000000000000000000000000000000000000000000000000000000000000000000000000000000000000000000000000000000000000000000000000000000000000000000000000000000000000000000000000000000000000000000000000",
      "type": "0x2",
      "transactionHash": "0xd91fd6bf1756a5407d8f7b720b726028d6c8ea5742ed7f1c4e73f79375285487",
      "transactionIndex": "0x9c",
      "blockHash": "0x18e417debc027e52a1bae815e4049dc719e2902236d5c44be4b8a4a2eb4d4408",
      "blockNumber": "0x6d57a2",
      "gasUsed": "0x7815",
      "effectiveGasPrice": "0x29fee35b1",
      "from": "0x8029505591a4e95ce2945b62d46e64dc4ddc9dec",
      "to": "0xfa34943400540d9f5194b1e735472a143c03c304",
      "contractAddress": null
    }
  ],
  "libraries": [],
  "pending": [],
  "returns": {},
  "timestamp": 1732744801,
  "chain": 11155111,
  "commit": "18e3c44"
}