{
  "transactions": [
    {
      "hash": "0xafeb68df6b7370f6a253333272088922095770604a3c85f385b43810c891462f",
      "transactionType": "CREATE",
      "contractName": "Borrower",
      "contractAddress": "0x06ce5cb6c58dc65784ce80d667053314f7cb1146",
      "function": null,
      "arguments": null,
      "transaction": {
        "from": "0x8029505591a4e95ce2945b62d46e64dc4ddc9dec",
        "gas": "0x5f5e7",
        "value": "0x0",
        "input": "0x60806040525f80546001600160a01b03191673d6ec5bf2215973fc680549052d5ca8ad18d3a85e1790553480156033575f5ffd5b5061040e806100415f395ff3fe608060405234801561000f575f5ffd5b506004361061004a575f3560e01c80630dfe16811461004e5780631efa4ec01461007d57806357b66b0214610092578063d21220a7146100a5575b5f5ffd5b600154610061906001600160a01b031681565b6040516001600160a01b03909116815260200160405180910390f35b61009061008b36600461035e565b6100b8565b005b6100906100a036600461035e565b610324565b600254610061906001600160a01b031681565b5f5f9054906101000a90046001600160a01b03166001600160a01b0316630dfe16816040518163ffffffff1660e01b8152600401602060405180830381865afa158015610107573d5f5f3e3d5ffd5b505050506040513d601f19601f8201168201806040525081019061012b9190610375565b600180546001600160a01b0319166001600160a01b039283161790555f546040805163d21220a760e01b81529051919092169163d21220a79160048083019260209291908290030181865afa158015610186573d5f5f3e3d5ffd5b505050506040513d601f19601f820116820180604052508101906101aa9190610375565b600280546001600160a01b0319166001600160a01b039283161790556001545f5460405163095ea7b360e01b815290831660048201526024810184905291169063095ea7b3906044016020604051808303815f875af115801561020f573d5f5f3e3d5ffd5b505050506040513d601f19601f8201168201806040525081019061023391906103a2565b506002545f5460405163095ea7b360e01b81526001600160a01b0391821660048201526024810184905291169063095ea7b3906044016020604051808303815f875af1158015610285573d5f5f3e3d5ffd5b505050506040513d601f19601f820116820180604052508101906102a991906103a2565b505f5460025460405163d004f0f760e01b81526001600160a01b0391821660048201526024810184905291169063d004f0f7906044015b6020604051808303815f875af11580156102fc573d5f5f3e3d5ffd5b505050506040513d601f19601f8201168201806040525081019061032091906103c1565b5050565b5f5460015460405163d004f0f760e01b81526001600160a01b0391821660048201526024810184905291169063d004f0f7906044016102e0565b5f6020828403121561036e575f5ffd5b5035919050565b5f60208284031215610385575f5ffd5b81516001600160a01b038116811461039b575f5ffd5b9392505050565b5f602082840312156103b2575f5ffd5b8151801515811461039b575f5ffd5b5f602082840312156103d1575f5ffd5b505191905056fea26469706673582212204511eafb88aefb3dc20b1da48b5c7afe85f9b258924f3f21711386e7595edca064736f6c634300081c0033",
        "nonce": "0xd8",
        "chainId": "0xaa36a7"
      },
      "additionalContracts": [],
      "isFixedGasLimit": false
    },
    {
      "hash": "0xa8bf3eb5755093682b720748c0ab082cc40b8e147565dfa6395301bbc49f340b",
      "transactionType": "CALL",
      "contractName": null,
      "contractAddress": "0xd6ec5bf2215973fc680549052d5ca8ad18d3a85e",
      "function": "flashLoan(uint256,address)",
      "arguments": [
        "100000000000000000000",
        "0x06ce5cb6C58DC65784cE80d667053314F7cB1146"
      ],
      "transaction": {
        "from": "0x8029505591a4e95ce2945b62d46e64dc4ddc9dec",
        "to": "0xd6ec5bf2215973fc680549052d5ca8ad18d3a85e",
        "gas": "0x35584",
        "value": "0x0",
        "input": "0x499cfd700000000000000000000000000000000000000000000000056bc75e2d6310000000000000000000000000000006ce5cb6c58dc65784ce80d667053314f7cb1146",
        "nonce": "0xd9",
        "chainId": "0xaa36a7"
      },
      "additionalContracts": [],
      "isFixedGasLimit": false
    },
    {
      "hash": "0x06e23c3d69db42efcead12e3534c6998d45160a9dcbc703203e3ad5b804b58c5",
      "transactionType": "CALL",
      "contractName": "Borrower",
      "contractAddress": "0x06ce5cb6c58dc65784ce80d667053314f7cb1146",
      "function": "kek(uint256)",
      "arguments": [
        "100000000000000000000"
      ],
      "transaction": {
        "from": "0x8029505591a4e95ce2945b62d46e64dc4ddc9dec",
        "to": "0x06ce5cb6c58dc65784ce80d667053314f7cb1146",
        "gas": "0x1c868",
        "value": "0x0",
        "input": "0x57b66b020000000000000000000000000000000000000000000000056bc75e2d63100000",
        "nonce": "0xda",
        "chainId": "0xaa36a7"
      },
      "additionalContracts": [],
      "isFixedGasLimit": false
    }
  ],
  "receipts": [
    {
      "status": "0x1",
      "cumulativeGasUsed": "0x894909",
      "logs": [],
      "logsBloom": "0x00000000000000000000000000000000000000000000000000000000000000000000000000000000000000000000000000000000000000000000000000000000000000000000000000000000000000000000000000000000000000000000000000000000000000000000000000000000000000000000000000000000000000000000000000000000000000000000000000000000000000000000000000000000000000000000000000000000000000000000000000000000000000000000000000000000000000000000000000000000000000000000000000000000000000000000000000000000000000000000000000000000000000000000000000000000",
      "type": "0x2",
      "transactionHash": "0xafeb68df6b7370f6a253333272088922095770604a3c85f385b43810c891462f",
      "transactionIndex": "0xa2",
      "blockHash": "0xd08c7bf0b53de5991192883da18cc64bad0ed2082d7b63175d3a3a6f96f70824",
      "blockNumber": "0x6ce9b9",
      "gasUsed": "0x495c6",
      "effectiveGasPrice": "0x1558d12a",
      "from": "0x8029505591a4e95ce2945b62d46e64dc4ddc9dec",
      "to": null,
      "contractAddress": "0x06ce5cb6c58dc65784ce80d667053314f7cb1146"
    },
    {
      "status": "0x1",
      "cumulativeGasUsed": "0x8bb2f8",
      "logs": [],
      "logsBloom": "0x00000000000000000000000000000000000000000000000000000000000000000000000000000000000000000000000000000000000000000000000000000000000000000000000000000000000000000000000000000000000000000000000000000000000000000000000000000000000000000000000000000000000000000000000000000000000000000000000000000000000000000000000000000000000000000000000000000000000000000000000000000000000000000000000000000000000000000000000000000000000000000000000000000000000000000000000000000000000000000000000000000000000000000000000000000000",
      "type": "0x2",
      "transactionHash": "0xa8bf3eb5755093682b720748c0ab082cc40b8e147565dfa6395301bbc49f340b",
      "transactionIndex": "0xa3",
      "blockHash": "0xd08c7bf0b53de5991192883da18cc64bad0ed2082d7b63175d3a3a6f96f70824",
      "blockNumber": "0x6ce9b9",
      "gasUsed": "0x269ef",
      "effectiveGasPrice": "0x1558d12a",
      "from": "0x8029505591a4e95ce2945b62d46e64dc4ddc9dec",
      "to": "0xd6ec5bf2215973fc680549052d5ca8ad18d3a85e",
      "contractAddress": null
    },
    {
      "status": "0x1",
      "cumulativeGasUsed": "0x8cfd67",
      "logs": [],
      "logsBloom": "0x00000000000000000000000000000000000000000000000000000000000000000000000000000000000000000000000000000000000000000000000000000000000000000000000000000000000000000000000000000000000000000000000000000000000000000000000000000000000000000000000000000000000000000000000000000000000000000000000000000000000000000000000000000000000000000000000000000000000000000000000000000000000000000000000000000000000000000000000000000000000000000000000000000000000000000000000000000000000000000000000000000000000000000000000000000000",
      "type": "0x2",
      "transactionHash": "0x06e23c3d69db42efcead12e3534c6998d45160a9dcbc703203e3ad5b804b58c5",
      "transactionIndex": "0xa4",
      "blockHash": "0xd08c7bf0b53de5991192883da18cc64bad0ed2082d7b63175d3a3a6f96f70824",
      "blockNumber": "0x6ce9b9",
      "gasUsed": "0x14a6f",
      "effectiveGasPrice": "0x1558d12a",
      "from": "0x8029505591a4e95ce2945b62d46e64dc4ddc9dec",
      "to": "0x06ce5cb6c58dc65784ce80d667053314f7cb1146",
      "contractAddress": null
    }
  ],
  "libraries": [],
  "pending": [],
  "returns": {},
  "timestamp": 1732385341,
  "chain": 11155111,
  "commit": "18e3c44"
}